:0400000080316328C0
:1000080080318B130B1D0D285230200095000B11E9
:100018007C1423009D1812281D1D14281D121D165E
:100028002000911E4A2823001908F0002000911290
:10003800FC184A287008C03A031D24287C1D2D2866
:100048007008C03A03197C1D382804306E02031862
:1000580038287C15EE016E08203E860001308700A6
:1000680070088100EE0A4A287008C03A03197C1DFE
:10007800442804306E02031C4428FC147C112F28E9
:100088007008C03A03194A287C192F28111E6128C4
:10009800111221005C0820006F0203185E286F0807
:1000A800203E860001308700010823009A002000C6
:1000B800EF0A612821001112FC158B17090088012D
:1000C800803166280E308400213085006230FE00C1
:1000D8000030FF01863142268031FC01EB01EC0142
:1000E800ED01EE01EF01A0308400003085004130C1
:1000F800FE000030FF008631422680312030840027
:10010800013085005030FE000030FF008631422665
:10011800803120008F28BE248031072580310130AE
:100128001A24803102301A24803120008C13640094
:10013800172580312100DA00DF01E001DD01DE0151
:10014800640020008C13DD30DA208031DF30432555
:100158008031A4287C1C08007C1009302100D90AB1
:100168005902031C0800D9012A26803103195702B5
:10017800031CD228D701D8010130A82480310038C7
:10018800031DC92801301A2480310230A824803187
:100198000038031DD22802301A248031013023216F
:1001A800803164000230232164000800AE00102969
:1001B8002E0886008701BE30C03F0030C13F7C1C3E
:1001C80008007C1009302100D90A5902031C202993
:1001D800D9012A26803103195702031C0729D701A0
:1001E800D8010130A82480310038031DFE280130D1
:1001F8001A2480310230A82480310038031D0729D1
:1002080002301A2480310130232180316400023009
:1002180023218031640020292E0886008701403F71
:10022800AC00413FAD00031D20292C08003A0319FA
:10023800DC28BE3A0319E32820002E08302E2000BF
:10024800AB000230F9002B08FA001030F22380319D
:100258002B08D43E86008701010B50296B08EF2537
:100268008031E6238031DD3EA3002030A425803193
:100278006C08EF258031E6238031DE3EA300203074
:10028800A42580312B08D43E8600870102308100E6
:100298002100D001D00A94293C268031023A031D5E
:1002A80073296B08EF258031E6238031ED3EA300EA
:1002B8002030A42580316C08EF258031E623803179
:1002C800EE3EA3002030A42580312B08D43E8600C2
:1002D80087010330810002302100D00094293C2698
:1002E8008031033A031D9C296B08EF258031E623F2
:1002F8008031FD3EA3002030A42580316C08EF2515
:100308008031E6238031FE3EA3002030A4258031D1
:100318002B08D43E860087018101810A2100D00183
:10032800F901F90A20002B08FA0014303B24803127
:100338000330F9002B08FA000D30F22380316B08E6
:10034800EF258031E6238031DF3EA3002030A4254D
:1003580080316C08EF258031E6238031E03EA30030
:100368002030A42580316D08EF258031E6238031C7
:10037800E13EA3002030A42580310330F9002B088A
:10038800FA000E30F22380316B08EF258031E62326
:100398008031EF3EA3002030A42580316C08EF2582
:1003A8008031E6238031F03EA3002030A42580313F
:1003B8006D08EF258031E6238031F13EA30020301F
:1003C800A42580310330F9002B08FA000F30F223FE
:1003D80080316B08EF258031E6238031FF3EA30092
:1003E8002030A42580316C08EF258031E623803148
:1003F800003EA3002130A42580316D08EF2580310F
:10040800E6238031013EA3002130A425803103304A
:10041800F9002B08FA000A30F22380316B08EF2527
:100428008031E6238031E23EA3002030A4258031CC
:100438006C08EF258031E6238031E33EA3002030AD
:10044800A42580316D08EF258031E6238031E43E14
:10045800A3002030A42580310330F9002B08FA00CE
:100468000B30F22380316B08EF258031E623803191
:10047800F23EA3002030A42580316C08EF2580319E
:10048800E6238031F33EA3002030A42580316D0897
:10049800EF258031E6238031F43EA3002030A425E7
:1004A80080310330F9002B08FA000C30F223803138
:1004B8006B08EF258031E6238031023EA30021300E
:1004C800A42580316C08EF258031E6238031033E76
:1004D800A3002130A42580316D08EF258031E62363
:1004E8008031043EA3002130A42580310230F90078
:1004F8002B08FA000130F2238031EB1F8A2A6B089F
:10050800F42580319C30E1258031912A2B08A20006
:10051800A235A2359C30C4258031C13F2B0809077C
:1005280009079E3E1D2680319C3EAE258031E6237C
:100538008031E53EA3002030A42580312708EF252F
:100548008031E6238031E63EA3002030A4258031A7
:1005580000302802333003192702031CBD2A27085C
:10056800FE258031E6238031E93E86002030D22501
:1005780080310230F9002B08FA000230F223803172
:10058800EB1FCD2A6B08F4258031A430E12580319A
:10059800D42A2B08A200A235A235A430C425803164
:1005A800C13F2B0809070907A63E1D268031A43E36
:1005B800AE258031E6238031F53EA3002030A42506
:1005C80080312708EF258031E6238031F63EA300ED
:1005D8002030A42580310030280233300319270247
:1005E800031C002B2708FE258031E6238031F93EC5
:1005F80086002030D22580310230F9002B08FA001D
:100608000330F2238031EB1F102B6B08F425803167
:10061800AC30E1258031172B2B08A200A235A2357A
:10062800AC30C4258031C13F2B0809070907AE3E0D
:100638001D268031AC3EAE258031E6238031053E53
:10064800A3002130A42580312708EF258031E62337
:100658008031063EA3002130A425803100302802D5
:10066800333003192702031C432B2708FE2580314A
:10067800E6238031093E86002130D22580310230C0
:10068800F9002B08FA000730F22380312B08A2006A
:10069800A235A235B430C4258031C13F2B080907E3
:1006A8000907B63E86002B0809070907B43EAE25A0
:1006B8008031E6238031E73EA3002030A425803135
:1006C8002708EF258031E6238031E83EA30020305B
:1006D800A42580310230F9002B08FA000830F223F3
:1006E80080312B08A200A235A235BC30C425803148
:1006F800C13F2B0809070907BE3E86002B080907DA
:100708000907BC3EAE258031E6238031F73EA300C1
:100718002030A42580312708EF258031E623803159
:10072800F83EA3002030A42580310230F9002B08C0
:10073800FA000930F22380312B08A200A235A23535
:10074800C430C4258031C13F2B0809070907C63EBC
:1007580086002B0809070907C43EAE258031E62329
:100768008031073EA3002130A42580312708EF25DA
:100778008031E6238031083EA3002130A425803152
:10078800F901F90A2B08FA001130F22380316B08BD
:10079800EF258031E62380310D3EA3002130A425CA
:1007A80080312B08D23E86008701810A2B08D23E71
:1007B800860002300102031C08002B08D23E860086
:1007C80081010800F300F20171087318F207F1358E
:1007D800F336F308031DE82B720808002000A00078
:1007E8007A0BF92B8D110D14FF2B7A08023A031D91
:1007F800FF2B0D108D1507268031632480312008CA
:100808007F248031A101790821020318152C2108C1
:100818006B3E8600870100307F2480318100A10A69
:10082800072C8D150D1407268031632CFB000D262F
:10083800803113303B2480312030F100F201F30184
:10084800F401632480312326803116303B24803123
:100858000D26803117303B24803123268031143017
:100868003B242100D501D50AD601D60A080020006C
:10087800A0007A0B422C8D110D14482C7A08023AEC
:10088800031D482C0D108D150726803163248031F7
:10089800200880387F248031A101790821020318BB
:1008A8005E2C2108D03E8600870101087F24803114
:1008B800A10A512C8D150D1407268031632CF501E2
:1008C800F601F701F80174087802031D752C730806
:1008D8007702031D752C72087602031D752C7108AA
:1008E800750203180800F50A0319F60A0319F70A2E
:1008F8000319F80A672CF100F201F301F401F5017C
:10090800240091009E2C0F307502031D952CFF309A
:100918007402031D952CFF307302031D952CFF30C4
:1009280072020318A12CF20A0319F30A0319F40A34
:100938000319F50A2000911D872C24001108F600E0
:100948002000911176080800FB00F901F90AFA0065
:100958001630F22380316B08031D0034F901F90ABF
:100968007B08FA001730F22380316B08403A0319EC
:10097800013400348B136830210099001A1EC22CF0
:10098800103023008C0020008C0121008C130C13E4
:100998000C168C150C158C140C1423008D012100D9
:1009A8000D108D140D158D110D128D120D138D173F
:1009B800FF3024008D00C03021009E0022009D17CA
:1009C8001E141D1723001E121E159F159C0133307F
:1009D8009B001E129D171E131F129E1621009116B2
:1009E80023001D131D164730210095058B160B118A
:1009F80046302000950021001708C13914389700A7
:100A08000B178B1708002400951215109514151153
:100A18009515033092009C171C171D12951620007F
:100A28008D150D140800003020008C190130F400D9
:100A38000130F40500300C190130F5000130F505DE
:100A480000308C180130F6000130F60500300C1823
:100A58000130F7000130F7057508F100F135760827
:100A6800F200F235F2357708090709070907720419
:100A780071047404F3000F30F30573080800EA00EA
:100A8800522D20006A0886008701FA30C03F0030E6
:100A9800C13FFC1C080068258031652D6A08860066
:100AA8008701403F2100E100413FE2006208003A2F
:100AB800031D652D6108003A0319452DFA3A0319FB
:100AC8004D2D20006A08302E8D3112258031E90025
:100AD800E908031D742D94258A3162228031782D0E
:100AE800690B782D9B258031FC102000EE013230F7
:100AF800F1002030842580311E30F1005230842DE1
:100B0800F300F401F4017108740203180800740872
:100B18007307F2008600013087008101F40A872DEF
:100B280015268031A201A30136268D31C92D15263F
:100B380080318030A2008930A30036268D31C92D3E
:100B48000318890AA40023088600240887002208BD
:100B58008100080084008501403F0007A2000131A0
:100B6800413F003DA300A336A20C2208A70023089A
:100B7800A800A901AA01A2003130F1002B08080041
:100B88002207A3002B08D23E8600870101352307E0
:100B9800A40086006C08C03F6B0808000318890A87
:100BA80087002208810741312308813D413124080B
:100BB800813D41312508813D08002407A5002B0807
:100BC800D23E8600870101352507A6008600220847
:100BD800C03F23080800A2003130F1002B080800AC
:100BE800A3006C08A200A209A3092B08A400A4353D
:100BF800A4350800A2002808A300A401A5013130EB
:100C0800F1002B080800F101F10AF201F301F401E7
:100C1800080040302100D000F901F90A7B08FA00E9
:100C28000800C0302200A00021005A082200A100BC
:100C38000800860087012B0809070907080021001A
:100C4800D001F901F90A7B08FA000800D70A03194C
:100C5800D80A01305802C334860087018101413126
:100C680081010800C030A40005302100DC00080024
:100C78002B08D43E86008701010808006400800123
:100C880001310130FE020030FF3B7F087E0403196A
:040C98000034432EB3
:1014C40022005208103A0319742A013A0319080039
:1014D400313A03197D2A013A03190800113A031D10
:1014E40008009B2A53080D278A316808E03A6704EC
:1014F400031D08000B2E5508083A031D0800530865
:101504000D278A316703E03003196806031D8B2A0F
:10151400CD2A6808E03A023003196706031D932AAE
:10152400B02B6808E03A033003196706031D08006E
:101534001E2F9C2A2000E201B001E20A6208303E1C
:10154400860087018101E20A6208303E860081013B
:10155400E20A6208303E86005330DB268A3153307B
:10156400DB268A315030DB268A314F30DB268A3144
:101574005730DB268A314530DB268A3152308100F0
:10158400E20A6208F7002030F8003030B8248A31CB
:101594002100DC00C92DE601B401E60A6608343EE8
:1015A400860087018101E60A6608343E86008101CF
:1015B400E60A6608343E86000C300E3E8400213074
:1015C40085009F268A31F1268A3161268A31CB260D
:1015D4008A319F268A31BB268A3161268A31CB26FD
:1015E4008A319F268A31A8268A3161268A311A30A7
:1015F400840045268A310E3084000008B00061263C
:101604008A311030840045268A3111308400452601
:101614008A311230840045268A310F3084004526F1
:101624008A311330840045268A31143084004526DB
:101634008A311530840045268A31163084004526C7
:101644008A311730840045268A31183084004526B3
:101654008A311930840045268A318F268A31F12651
:101664008A3161268A318F268A31BB268A316126E6
:101674008A318F268A31A8268A3161268A313D3003
:101684000E3E3D268A31E60A6608343E8600313035
:101694000E3E3D268A31E60A6608343E8600333023
:1016A4000E3E3D268A31E60A6608343E8600343012
:1016B4000E3E3D268A31E60A6608343E8600353001
:1016C4000E3E3D268A31E60A6608343E86003230F4
:1016D4000E3E3D268A31E60A6608343E86003630E0
:1016E4000E3E3D268A31E60A6608343E86003730CF
:1016F4000E3E3D268A31E60A6608343E86003830BE
:101704000E3E3D268A31E60A6608343E86003930AC
:101714000E3E3D268A31E60A6608343E86003A309B
:101724000E3E3D268A31E60A6608343E86003B308A
:101734000E3E3D268A31E60A6608343E86003C3079
:101744000E3E3D268A31E60A6608F7002030F8008E
:101754003430B8248A312100DC00C92DE601B401FB
:10176400E60A6608343E860087018101E60A6608B7
:10177400343E860081017B268A318400213067262D
:101784008A31EC268A314C268A31C3268A314C268A
:101794008A31B1268A317B268A313D268A31E60A8E
:1017A4006608343E860010300E3E3D268A31E60A35
:1017B4006608343E860012300E3E3D268A31E60A23
:1017C4006608343E860013300E3E3D268A31E60A12
:1017D4006608343E860014300E3E3D268A31E60A01
:1017E4006608343E860011300E3E3D268A31E60AF4
:1017F4006608343E860015300E3E3D268A31E60AE0
:101804006608343E860016300E3E3D268A31E60ACE
:101814006608343E860017300E3E3D268A31E60ABD
:101824006608343E860018300E3E3D268A31E60AAC
:101834006608343E860019300E3E3D268A31E60A9B
:101844006608343E86001A300E3E3D268A31E60A8A
:101854006608343E86001B300E3E3D268A317326D0
:101864008A3167268A31EC268A31810073268A31CF
:1018740067268A31C3268A31810073268A31672616
:101884008A31B1268A31E60A6608343E86004D3034
:101894000E3E3D268A31E60A6608343E8600413013
:1018A4000E3E3D268A31E60A6608343E8600433001
:1018B4000E3E3D268A31E60A6608343E86004430F0
:1018C4000E3E3D268A31E60A6608343E86004530DF
:1018D4000E3E3D268A31E60A6608343E86004230D2
:1018E4000E3E3D268A31E60A6608343E86004630BE
:1018F4000E3E3D268A31E60A6608343E86004730AD
:101904000E3E3D268A31E60A6608343E860048309B
:101914000E3E3D268A31E60A6608343E860049308A
:101924000E3E3D268A31E60A6608343E86004A3079
:101934000E3E3D268A31E60A6608343E86004B3068
:101944000E3E3D268A31E60A6608343E86004C3057
:101954000E3E3D268A31E60A6608F7002030F8007C
:101964003430B8248A312100DC00C92DA1000230B2
:10197400A3007808860001308700C0308100780811
:10198400013E860021005A0881002000A201770848
:1019940022020318EE2C22082107F90014278A31A9
:1019A400031DD92C230882268A31DC30EA2C052732
:1019B4008A31031DE22C230882268A31DD30EA2C89
:1019C400F6268A3122082107FA00840085010008DE
:1019D4008100A30AA20AC92C2108F100F2017708A8
:1019E400F300A9258A31A000C03A031DFE2C230868
:1019F40082268A31DC300A2D05278A31031D072D02
:101A0400230882268A31DD300A2DF6268A31200801
:101A14008100A30AF626C0308100A30A2308080027
:101A24002000D601D501D401D201D6016E08560298
:101A340003185B2D02305602031C4C2D6E08FF3E2A
:101A4400CF268A3103184C2D2000FD268A31031D30
:101A54003B2D5608213E86000108DC3A031D3B2D30
:101A64005508203E86008701C0308100D50AD60A79
:101A7400592DFD268A31031D4C2D5608213E860022
:101A84000108DD3A031D4C2D5508203E86008701D0
:101A9400DB30372D20005508203E8600870156088C
:101AA400203E84000130850000088100D50AD60A52
:101AB400182D210821005A060319642D0230200034
:101AC400D300A72D20002008C03A0319732D550810
:101AD400FF3E203E14278A310319732DD301D30A04
:101AE400A72D5508D4002100DB0120005408FE3E38
:101AF400203E860087010108D2000230D600540837
:101B0400FE3ECF268A310318992D21005B08523EF0
:101B140086000130870020005608203E840085019D
:101B2400000881002100DB0A2000D60A812D5230F2
:101B3400F1000130F20021005B08F300A9258A318D
:101B440020005206031D702DD30153080800F6012E
:101B5400F401730874020318C72D71088600720813
:101B640087000108F606F10A0319F20AF501F61FC7
:101B7400BF2DF6350730F606C02DF635F50A0830C8
:101B84007502031CB92DF40AAB2D76080800FC116C
:101B94002000EF018C1723009E162100111620004F
:101BA40019278A31E82DE1268A31031DE32D0030FF
:101BB4002E02031DE32D00302D02031DE32D003002
:101BC4002C020318EA2D8031AE208A31FC1DD52D5C
:101BD400200019278A31012EE1268A31031DFC2DAC
:101BE40000302E02031DFC2D00302D02031DFC2DA0
:101BF40000302C020318042E8031AE208A312300D9
:101C04009E1CEE2D2100111223009E1220008C1325
:101C14000800E201B001E20A6208303E8600870152
:101C24008101E20A6208303E86008101E20A62080C
:101C3400303E86008101E20A6208303E860081015E
:101C4400E20A6208303E860030300E3E3D268A317C
:101C5400E20A6208303E860061300E3E3D268A313B
:101C6400E20A6208F7002030F8003030B8248A31E4
:101C74002100DC00C92D84002130031822308500A6
:101C840000088100080000088100E60A6608343E66
:101C9400860008008100E60A6608343E86001C308F
:101CA4000E3E84002130031822308500003FB0002E
:101CB400013FB100023FB200033FB30008008100BE
:101CC400E60A6608343E86000800031822308500C0
:101CD400003FB000013FB100023FB200033FB30038
:101CE4000800E60A6608343E86004D300E3E840045
:101CF4002134E60A6608343E86001C300E3E080095
:101D04007807F900860001308700DB308100A30AE0
:101D140023087807F900860008003D300E3E840051
:101D24002130031822308500003FB000013FB1008C
:101D3400023FB200033FB3000800003FB000013F80
:101D4400B100023FB200033FB30008003108B00005
:101D54003208B1003308B200B3013008080031087A
:101D6400B0003208B1003308B200B301300881007A
:101D740008003208B0003308B100B201B3013008E2
:101D840008003208B0003308B100B201B3013008D2
:101D940008000C300E3E84002134F700FF30031895
:101DA4000030F800803A803C031D08007708560292
:101DB40008008100E20A6208303E86000800200024
:101DC400AC0A0319AD0A0319AE0A0319AF0A10309D
:101DD4002F020800B000B101B201B3010800B00045
:101DE400B101B201B301080023087807F9008600A5
:101DF4000130870008005608203E86000130870025
:101E04000108DB3A080022082107F900860087014F
:101E14000108DB3A08002000E800220054082000F2
:101E2400E7000800860087010108C03A0800AC01F9
:101E3400AD01AE01AF010800E601B401E60A66088F
:101E4400343E860087018101E60A6608343E860036
:101E54008101DF278A310E3E8400D2278A31FB2795
:101E64008A31BD278A31F3278A31BD278A31E92790
:101E74008A31DF278A31B0278A312030B0278A316E
:101E84002230B0278A312330B0278A312430B0275A
:101E94008A312130B0278A312530B0278A31263063
:101EA400B0278A312730B0278A312830B0278A31C9
:101EB4002930B0278A312A30B0278A312B30B02715
:101EC4008A315D300E3E8400D2278A31FB278A3165
:101ED4008100E4278A310E3E8400D2278A31F32719
:101EE4008A318100E4278A310E3E8400D2278A3168
:101EF400E9278A31E4278A31B0278A315130B02763
:101F04008A315330B0278A315430B0278A31553062
:101F1400B0278A315230B0278A315630B0278A31FF
:101F24005730B0278A315830B0278A315930B0271A
:101F34008A315A30B0278A315B30B0278A315C301D
:101F44000E3E3D268A31E60A6608F7002030F80086
:101F54003430B8248A312100DC00C92D0E3E8400BF
:101F6400213003182230850000088100E60A660843
:101F7400343E860008008100E60A6608343E860086
:101F84002C300E3E84002130031822308500003F9F
:101F9400B000013FB100023FB200033FB3000800AC
:101FA4002130031822308500003FB000013FB1000A
:101FB400023FB200033FB3000800E60A6608343E5D
:101FC40086002C34E60A6608343E86005D34310807
:101FD400B0003208B1003308B200B3013008810008
:101FE40008003208B0003308B100B201B301300870
:0C1FF4000800B000B101B201B301080008
:020000040001F9
:02000E00BCD95B
:00000001FF
