:04000000803189289A
:1000080080312000111C2528FF3011109700C130C5
:1000180096000630730203181328F30A1A28730887
:10002800063A031D1A280B30F3007C15FC1D252801
:1000380023009E1C2528FC119E1220008C13F4011D
:10004800F5010B1D54283D30200095000B11F00AD6
:100058000319F10A1430F600F7017108F900700865
:10006800F8008F31E0278031770876040319FC14F3
:100078001030F6000E30F7007108F9007008F8002B
:100088008F31E02780317708760403197C140E300D
:100098007102103003197002031C5428F001F10199
:1000A80023009D1859281D1D5B281D121D162000B0
:1000B800911E7428911223001908FB007C197428DA
:1000C800F3017208203E8600013087007B0881001A
:1000D800F20A7208403A031D74280B307C15F300AD
:1000E8002000111E090011127508740203188528D2
:1000F8007408A03E86008701010823009A00F40ACC
:10010800090021001112FC150900880183314F2BC9
:100118002000C000A801A80A092480310230A600E6
:100128004008A70010303D23803140084E3E86002D
:100138008701010BBE284708A8248031312380316C
:100148009024803186002C0887002A0881004808FE
:10015800A82480313123803190248031013E3A2413
:10016800803140084E3E8600023087018100CA0176
:10017800CA0A0029D5248031023A031DE02847081D
:10018800A82480313123803190248031103E3A24D4
:1001980080314808A824803131238031902480316F
:1001A800113E3A24803140084E3E860003308701D4
:1001B80081000230CA000029D5248031033A031D8A
:1001C80007294708A82480313123803190248031C1
:1001D800203E3A2480314808A824803131238031D8
:1001E80090248031213E3A24803140084E3E8600DA
:1001F80087018101810ACA01A601A60A4008A70051
:100208001430CF2380310230A6004008A700013007
:100218003D238031C71F1329FF30C706C806313078
:10022800A000400831238031B5248031083E702475
:10023800803131238031AD248031093E452480311D
:100248003123803190248031083E3A2480313E08A1
:10025800A82480313123803190248031093E3A240A
:10026800803100303F02333003193E02031C462917
:100278003E08BD24803131238031C62480310C3EB4
:10028800982480310230A6004008A70002303D23A0
:100298008031C71F5229FF30C706C8063130A00079
:1002A800400831238031B5248031183E70248031D4
:1002B80031238031AD248031193E452480313123EA
:1002C800803190248031183E3A2480313E08A82499
:1002D80080313123803190248031193E3A24803195
:1002E80000303F02333003193E02031C85293E08C3
:1002F800BD24803131238031C62480311C3E9824AE
:1003080080310230A6004008A70003303D23803129
:10031800C71F9129FF30C706C8063130A000400822
:1003280031238031B5248031283E70248031312337
:100338008031AD248031293E4524803131238031FC
:1003480090248031283E3A2480313E08A824803108
:100358003123803190248031293E3A248031003085
:100368003F02333003193E02031CC4293E08BD2452
:10037800803131238031C62480312C3E982480314D
:100388000330A6004008A7000D303D238031470800
:10039800A82480313123803190248031023E3A24D0
:1003A80080314808A824803131238031902480315D
:1003B800033E3A2480314908A82480313123803112
:1003C80090248031043E3A2480310330A60040084E
:1003D800A7000E303D2380314708A82480313123FF
:1003E800803190248031123E3A2480314808A82474
:1003F80080313123803190248031133E3A2480317A
:100408004908A82480313123803190248031143E5A
:100418003A2480310330A6004008A7000F303D235E
:1004280080314708A82480313123803190248031DD
:10043800223E3A2480314808A82480313123803173
:1004480090248031233E3A2480314908A824803101
:100458003123803190248031243E3A248031033086
:10046800A6004008A7000A303D2380314708A82489
:1004780080313123803190248031053E3A24803107
:100488004808A82480313123803190248031063EE9
:100498003A2480314908A8248031312380319024BE
:1004A8008031073E3A2480310330A6004008A70077
:1004B8000B303D2380314708A82480313123803117
:1004C80090248031153E3A2480314808A824803190
:1004D8003123803190248031163E3A2480314908F6
:1004E800A82480313123803190248031173E3A246A
:1004F80080310330A6004008A7000C303D2380312E
:100508004708A82480313123803190248031253E4A
:100518003A2480314808A82480313123803190243E
:100528008031263E3A2480314908A824803131237D
:10053800803190248031273E3A2480310230A60051
:100548004008A70007303D2380313130A000400823
:1005580031238031B52480310A3E70248031312323
:100568008031AD2480310B3E4524803131238031E8
:10057800902480310A3E3A2480313E08A8248031F4
:1005880031238031902480310B3E3A24803102306F
:10059800A6004008A70008303D2380313130A00074
:1005A800400831238031B52480311A3E70248031CF
:1005B80031238031AD2480311B3E452480313123E5
:1005C8008031902480311A3E3A2480313E08A82494
:1005D800803131238031902480311B3E3A24803190
:1005E8000230A6004008A70009303D238031313091
:1005F800A000400831238031B52480312A3E702480
:10060800803131238031AD2480312B3E4524803127
:1006180031238031902480312A3E3A2480313E08AB
:10062800A824803131238031902480312B3E3A2414
:100638008031A601A60A4008A70011303D23803169
:100648004708A82480313123803190248031303EFE
:100658003A248031A8014008092CA200A1012008F1
:100668002218A107A035A236A208031D332B2108A2
:100678000800A800E1238031A901260829020318EF
:1006880008002908473E860000308701E1238031B1
:100698008100A90A412B0E30840021308500623088
:1006A800FE000030FF018F31D42780314730FC0134
:1006B800F001F101F201F301F401F50184000030C9
:1006C80085000C30FE000030FF008F31D4278031C8
:1006D800A0308400003085004030FE000030FF006C
:1006E8008F31D4278031203084000130850040309C
:1006F800FE000030FF008F31D42780312000842B8A
:10070800FD248031202480310130A82380318C13CE
:100718003024803164007C1D932B75258031640062
:10072800FC1C9A2B0130FC108C20803164007C1C4E
:100738008F2B01307C10532580310038031D8F2BFF
:100748000130A82380318F2BAA00A801A80A092408
:100758008031CE2480311330CF2380312030A00067
:10076800A101A201A301E1248031DB2480311630EC
:10077800CF238031CE2480311730CF238031DB2442
:1007880080311430CF238031CF01CF0AD001D00A75
:10079800A8012A08092CA8008038E1238031A90182
:1007A800260829020318080029084A3E86008701FE
:1007B8000108E1238031A90AD42BA000A101A201DC
:1007C800A301A40124009100002C0F302402031D72
:1007D800F72BFF302302031DF72BFF302202031DE6
:1007E800F72BFF3021020318032CA10A0319A20AD0
:1007F8000319A30A0319A40A2000911DE92B240058
:1008080011082000A50091110800A9002808031963
:10081800182C290B112C8D11192C2908023A031DAB
:100828001A2C0D108D151A2C8D150D14A001A00A67
:10083800A101A201A301E12C240095121510951421
:1008480015119515033092009C171C171D1295164B
:1008580020008D150D1408000B30D200F2017C1118
:10086800F501F401C930FC11D1000800AD000030D9
:100878002C3DAE002D0886002E0887002A0881002E
:10088800080086000030353D87000108B600B70132
:10089800B801B9014808BA00BB01BC01BD01B607DF
:1008A8003B08B73D3C08B83D3D08B93D3608AC07A4
:1008B8003708AD3D3808AE3D3908AF3DAF36AE0C10
:1008C800AD0CAC0C2D08BF002C08BE003F08AA00D8
:1008D8003130A00040080800860000302B3D87001A
:1008E8000108AC00AD01AE01AF014708B000B1018D
:1008F800B201B301AC073108AD3D3208AE3D330853
:10090800AF3D2E08AF002D08AE002C08AD003130E9
:10091800AC01A00040080800DD3EAB002030031801
:10092800890AAC002B080800860000302F3D87009C
:100938002A08810741312B08813D41312C08813D2E
:1009480041312D08813D0800AA003130A00040083F
:100958000800DD3EB40020300318890AB5003408C9
:100968000800DD3EAA0020300318890AAB002A08D7
:100978000800AA003F08AB003130AC01AD01A0006F
:1009880040080800DD3EAE0020300318890AAF0099
:100998002E0808004030CA00A601A60A2A08A700A7
:1009A800080040084E3E8600870101080800CA0179
:1009B800A601A60A2A08A7000800A401A501A60105
:1009C800A70123082702031DF32C22082602031D72
:1009D800F32C21082502031DF32C200824020318F8
:1009E8000800A40A0319A50A0319A60A0319A70AE5
:1009F800E52C68308B13210099001A1E012D103048
:100A080023008C0020008C0121008C130C130C1681
:100A18008C150C158C140C1423008D012100FF304B
:100A28000D108D140D158D110D128D120D138D17BE
:100A380024008D00C03021009E0022009D171E1446
:100A48001D1723001E121E159F159C0167309B0061
:100A58001E129D171E131F129E16210091162300A9
:100A680047301D131D16210095053D308B160B11BF
:100A7800200095003F30980518169816FF309913F6
:100A88009700C1309600181411102100111411128A
:100A98001708C139143897000B178B170800200066
:100AA800AB00AA01AA0AA801A80A09248031A60154
:100AB800A60A2B08A70016303D238031C708031D5E
:100AC8006F2DA601A60A2B08A70017303D238031F9
:100AD8004708403A031DAA01A8012B0809242A083F
:100AE80008002000C501C6010D187C2D0D147D2DB0
:100AF8000D102200200820005106031DB82D2030BB
:100B0800A0000130A1007208FE3EA200BB25803182
:100B180072081E3E86000130870072081F3E84005E
:100B2800013085000008C4000108C30044084E06CF
:100B3800031DA02D43084D06031DB82D22002208D1
:100B48002000C600220023082000C500AE2DE025A5
:100B58008031B82D4608033A0319B32DB82D45083E
:100B6800843A0319AB2DB82D7C11F2010800FF302F
:100B7800CD00CE00A401220824020318080024088E
:100B88002007860021080318890A87000108CD0676
:100B9800A5014D08A3000130A305CE36CD0C230BCB
:100BA800D92D0130CD06A030CE060830A50A250281
:100BB800031CCD2DA40ABF2D2000C930B501B601F4
:100BC8002100A0002000B50A9A2780310330870150
:100BD8008100B50A9A27803124308100B50A0319AB
:100BE800B60A0230A027803103300E3ED627803166
:100BF80004300E3E8600213064278031F52780318D
:100C0800E6278031D92680319227803143278031E9
:100C18000319B60A0530A027803106300E3ED627C4
:100C2800803107300E3E8600213064278031F0275E
:100C38008031E6278031D9268031922780314327B9
:100C480080310319B60A0830A027803109300E3EDA
:100C58008600E1278031B427803118278031AC27FE
:100C68008031432780310319B60A1230A02780311A
:100C780013300E3ED627803114300E3E86002130C8
:100C880064278031F5278031E6278031D9268031E5
:100C980092278031432780310319B60A1530A027DF
:100CA800803116300E3ED627803117300E3E860032
:100CB800213064278031F0278031E6278031D9261A
:100CC800803192278031432780310319B60A1830C2
:100CD800A027803119300E3E8600E1278031B427E5
:100CE800803118278031AC278031432780310319A0
:100CF800B60A2230A027803123300E3ED627803115
:100D080024300E3E8600213064278031F52780315B
:100D1800E6278031D92680319227803143278031D8
:100D28000319B60A2530A027803126300E3ED62773
:100D3800803127300E3E8600213064278031F0272D
:100D48008031E6278031D9268031922780314327A8
:100D580080310319B60A2830A027803129300E3E89
:100D68008600E1278031B427803118278031AC27ED
:100D78008031432780310319B60AA030A000A101B1
:100D88003508A200BB2580313508A03E86008701C2
:100D98004D088100B50A9A2780314E088100B50AAE
:100DA8000319B60A3508F5003D2FA801A901AA01C3
:100DB800AB01230822042104200403190F2FAC01DE
:100DC800AC0AA31BEC2EA035A10DA20DA30DE42E99
:100DD800A835A90DAA0DAB0D23082702031DFE2E69
:100DE80022082602031DFE2E21082502031DFE2EC1
:100DF80020082402031C092F2008A4022108A53B6F
:100E08002208A63B2308A73B2814A336A20CA10C52
:100E1800A00CAC0BEC2E2B08A3002A08A200290872
:100E2800A1002808A0000800A801A901AA01AB0197
:100E3800201C262F2408A8072508A93D2608AA3D16
:100E48002708AB3DA435A50DA60DA70DA336A20C0A
:100E5800A10CA00C2308220421042004031D1C2F2C
:100E68002B08A3002A08A2002908A1002808A0002E
:100E780008008C1723009E16210011160800BF00D9
:100E88003508A03E8600870142088100B50A03198B
:100E9800B60A3508A03E860041088100B50A031944
:100EA800B60A3508A03E860040088100B50A031935
:100EB800B60A3508A03E86003F088100B50A08003A
:100EC8000318223087000108B100B201B301B40150
:100ED8003808C2003708C100BF01C0013B08AD0097
:100EE8003C08AE003D08AF003E08B0002F08B00037
:100EF8002E08AF002D08AE00AD012D08BF042E0846
:100F0800C0042F08C1043008C2043108BF043208E5
:100F1800C0043308C1043408C20408002308C2000E
:100F28002208C1002108C000200808000319B60AD9
:100F38003508A03E860008000E3E860021300318C2
:100F4800223087000108B700B801B901BA010800CA
:100F58002308C2002208C1002108C0002008080098
:100F68000108BB00BC01BD01BE013908C200380838
:100F7800C1003708C000BF013B08BF043C08C004DB
:100F88003D08C1043E08C2045030A000A101A201DE
:100F9800A3014208A7004108A6004008A5003F0891
:100FA800A4000800860021300318223087000108B9
:100FB800BB00BC01BD01BE0108002130031822306E
:100FC80087000800A0004208A7004108A6004008C2
:100FD800A5003F08A40008000630A301A201A10053
:0C0FE800C4340130A301A201A100673451
:101FA8006400800101310130FE020030FF3B7F08F0
:101FB8007E0403190034D52F770876040319FB2F04
:101FC800FA01FA0AF71BEB2FF635F70DE52F77081C
:101FD8007902031DF12F76087802031CF72F760883
:101FE800F8027708F93BF736F60CFA0BEB2F79086D
:081FF800F7007808F60008006C
:020000040001F9
:02000E00A4D973
:00000001FF
