:04000000803189289A
:1000080080312000111C2528FF3011109700C130C5
:1000180096000630730203181328F30A1A28730887
:10002800063A031D1A280B30F3007C15FC1D252801
:1000380023009E1C2528FC119E1220008C13F4011D
:10004800F5010B1D54283D30200095000B11F00AD6
:100058000319F10A1430F600F7017108F900700865
:10006800F8008F31E0278031770876040319FC14F3
:100078001030F6000E30F7007108F9007008F8002B
:100088008F31E02780317708760403197C140E300D
:100098007102103003197002031C5428F001F10199
:1000A80023009D1859281D1D5B281D121D162000B0
:1000B800911E7428911223001908FB007C197428DA
:1000C800F3017208203E8600013087007B0881001A
:1000D800F20A7208403A031D74280B307C15F300AD
:1000E8002000111E090011127508740203188528D2
:1000F8007408A03E86008701010823009A00F40ACC
:10010800090021001112FC150900880183314F2BC9
:100118002000C000A801A80A0A2480310230A600E5
:100128004008A70010303D23803140084E3E86002D
:100138008701010BBE284708A9248031312380316B
:100148009124803186002C0887002A0881004808FD
:10015800A92480313123803191248031013E3B2410
:10016800803140084E3E8600023087018100CA0176
:10017800CA0A0029D6248031023A031DE02847081C
:10018800A92480313123803191248031103E3B24D1
:1001980080314808A924803131238031912480316D
:1001A800113E3B24803140084E3E860003308701D3
:1001B80081000230CA000029D6248031033A031D89
:1001C80007294708A92480313123803191248031BF
:1001D800203E3B2480314808A924803131238031D6
:1001E80091248031213E3B24803140084E3E8600D8
:1001F80087018101810ACA01A601A60A4008A70051
:100208001430D02380310230A6004008A700013006
:100218003D238031C71F1329FF30C706C806313078
:10022800A000400831238031B6248031083E712473
:10023800803131238031AE248031093E462480311B
:100248003123803191248031083E3B2480313E089F
:10025800A92480313123803191248031093E3B2407
:10026800803100303F02333003193E02031C462917
:100278003E08BE24803131238031C72480310C3EB2
:10028800992480310230A6004008A70002303D239F
:100298008031C71F5229FF30C706C8063130A00079
:1002A800400831238031B6248031183E71248031D2
:1002B80031238031AE248031193E462480313123E8
:1002C800803191248031183E3B2480313E08A92496
:1002D80080313123803191248031193E3B24803193
:1002E80000303F02333003193E02031C85293E08C3
:1002F800BE24803131238031C72480311C3E9924AB
:1003080080310230A6004008A70003303D23803129
:10031800C71F9129FF30C706C8063130A000400822
:1003280031238031B6248031283E71248031312335
:100338008031AE248031293E4624803131238031FA
:1003480091248031283E3B2480313E08A924803105
:100358003123803191248031293E3B248031003083
:100368003F02333003193E02031CC4293E08BE2451
:10037800803131238031C72480312C3E992480314B
:100388000330A6004008A7000D303D238031470800
:10039800A92480313123803191248031023E3B24CD
:1003A80080314808A924803131238031912480315B
:1003B800033E3B2480314908A92480313123803110
:1003C80091248031043E3B2480310330A60040084C
:1003D800A7000E303D2380314708A92480313123FE
:1003E800803191248031123E3B2480314808A92471
:1003F80080313123803191248031133E3B24803178
:100408004908A92480313123803191248031143E58
:100418003B2480310330A6004008A7000F303D235D
:1004280080314708A92480313123803191248031DB
:10043800223E3B2480314808A92480313123803171
:1004480091248031233E3B2480314908A9248031FE
:100458003123803191248031243E3B248031033084
:10046800A6004008A7000A303D2380314708A92488
:1004780080313123803191248031053E3B24803105
:100488004808A92480313123803191248031063EE7
:100498003B2480314908A9248031312380319124BB
:1004A8008031073E3B2480310330A6004008A70076
:1004B8000B303D2380314708A92480313123803116
:1004C80091248031153E3B2480314808A92480318D
:1004D8003123803191248031163E3B2480314908F4
:1004E800A92480313123803191248031173E3B2467
:1004F80080310330A6004008A7000C303D2380312E
:100508004708A92480313123803191248031253E48
:100518003B2480314808A92480313123803191243B
:100528008031263E3B2480314908A924803131237B
:10053800803191248031273E3B2480310230A6004F
:100548004008A70007303D2380313130A000400823
:1005580031238031B62480310A3E71248031312321
:100568008031AE2480310B3E4624803131238031E6
:10057800912480310A3E3B2480313E08A9248031F1
:1005880031238031912480310B3E3B24803102306D
:10059800A6004008A70008303D2380313130A00074
:1005A800400831238031B62480311A3E71248031CD
:1005B80031238031AE2480311B3E462480313123E3
:1005C8008031912480311A3E3B2480313E08A92491
:1005D800803131238031912480311B3E3B2480318E
:1005E8000230A6004008A70009303D238031313091
:1005F800A000400831238031B62480312A3E71247E
:10060800803131238031AE2480312B3E4624803125
:1006180031238031912480312A3E3B2480313E08A9
:10062800A924803131238031912480312B3E3B2411
:100638008031A601A60A4008A70011303D23803169
:100648004708A92480313123803191248031303EFC
:100658003B248031A80140080A2CA200A1012008EF
:100668002218A107A035A236A208031D332B2108A2
:100678000800A800E2238031A901260829020318EE
:1006880008002908473E860000308701E2238031B0
:100698008100A90A412B0E30840021308500623088
:1006A800FE000030FF018F31D42780314730FC0134
:1006B800F001F101F201F301F401F50184000030C9
:1006C80085000C30FE000030FF008F31D4278031C8
:1006D800A0308400003085004030FE000030FF006C
:1006E8008F31D4278031203084000130850040309C
:1006F800FE000030FF008F31D42780312000842B8A
:10070800FE248031212480310130A92380318C13CB
:100718003124803164007C1D932B76258031640060
:10072800FC1C9A2B0130FC108C20803164007C1C4E
:10073800A72B01307C10542580310038031DA72BCE
:100748000130A923803164008F2BAA00A801A80AD0
:100758000A248031CF2480311330D02380312030D7
:10076800A000A101A201A301E2248031DC24803190
:100778001630D0238031CF2480311730D0238031F8
:10078800DC2480311430D0238031CF01CF0AD0014E
:10079800D00AA8012A080A2CA8008038E223803150
:1007A800A901260829020318080029084A3E8600DC
:1007B80087010108E2238031A90AD52BA000A101F5
:1007C800A201A301A40124009100012C0F302402EE
:1007D800031DF82BFF302302031DF82BFF302202E4
:1007E800031DF82BFF3021020318042CA10A03195A
:1007F800A20A0319A30A0319A40A2000911DEA2BCF
:10080800240011082000A50091110800A90028085B
:100818000319192C290B122C8D111A2C2908023AAC
:10082800031D1B2C0D108D151B2C8D150D14A001EF
:10083800A00AA101A201A301E22C2400951215101F
:10084800951415119515033092009C171C171D124D
:10085800951620008D150D1408000B30D200F201FA
:100868007C11F501F401C930FC11D1000800AD007C
:1008780000302C3DAE002D0886002E0887002A087F
:100888008100080086000030353D87000108B60069
:10089800B701B801B9014808BA00BB01BC01BD01E4
:1008A800B6073B08B73D3C08B83D3D08B93D36089A
:1008B800AC073708AD3D3808AE3D3908AF3DAF3617
:1008C800AE0CAD0CAC0C2D08BF002C08BE003F08C8
:1008D800AA003130A00040080800860000302B3DF7
:1008E80087000108AC00AD01AE01AF014708B000B8
:1008F800B101B201B301AC073108AD3D3208AE3DDC
:100908003308AF3D2E08AF002D08AE002C08AD000F
:100918003130AC01A00040080800DD3EAB002030BB
:100928000318890AAC002B080800860000302F3D08
:1009380087002A08810741312B08813D41312C0865
:10094800813D41312D08813D0800AA003130A000C9
:1009580040080800DD3EB40020300318890AB500BD
:1009680034080800DD3EAA0020300318890AAB00CD
:100978002A080800AA003F08AB003130AC01AD01DD
:10098800A00040080800DD3EAE0020300318890AA8
:10099800AF002E0808004030CA00A601A60A2A089F
:1009A800A700080040084E3E86008701010808009D
:1009B800CA01A601A60A2A08A7000800A401A501E1
:1009C800A601A70123082702031DF42C22082602EA
:1009D800031DF42C21082502031DF42C20082402F1
:1009E80003180800A40A0319A50A0319A60A03197B
:1009F800A70AE62C68308B13210099001A1E022DD5
:100A0800103023008C0020008C0121008C130C1363
:100A18000C168C150C158C140C1423008D01210058
:100A2800FF300D108D140D158D110D128D120D1333
:100A38008D1724008D00C03021009E0022009D17D4
:100A48001E141D1723001E121E159F159C016730CA
:100A58009B001E129D171E131F129E162100911631
:100A6800230047301D131D16210095053D308B16B8
:100A78000B11200095003F30980518169816FF3086
:100A880099139700C1309600181411102100111401
:100A980011121708C139143897000B178B17080063
:100AA8002000AB00AA01AA0AA801A80A0A248031DA
:100AB800A601A60A2B08A70016303D238031C708D7
:100AC800031D702DA601A60A2B08A70017303D2389
:100AD80080314708403A031DAA01A8012B080A24BF
:100AE8002A0808002000C501C6010D187D2D0D1427
:100AF8007E2D0D102200200820005106031DB92D5F
:100B08002030A0000130A1007208FE3EA200BC25E2
:100B1800803172081E3E86000130870072081F3E31
:100B28008400013085000008C4000108C30044089F
:100B38004E06031DA12D43084D06031DB92D2200A5
:100B480022082000C600220023082000C500AF2D7F
:100B5800E1258031B92D4608033A0319B42DB92D82
:100B68004508843A0319AC2DB92D7C11F20108000F
:100B7800FF30CD00CE00A40122082402031808008B
:100B880024082007860021080318890A870001081D
:100B9800CD06A5014D08A3000130A305CE36CD0C26
:100BA800230BDA2D0130CD06A030CE060830A50A79
:100BB8002502031CCE2DA40AC02D2000C930B50182
:100BC800B6012100A0002000B50A9B278031033020
:100BD80087018100B50A9B27803124308100B50A3E
:100BE8000319B60A0230A127803103300E3ED727F9
:100BF800803104300E3E8600213065278031F6278B
:100C08008031E7278031DA268031932780314427E5
:100C180080310319B60A0530A127803106300E3E0F
:100C2800D727803107300E3E860021306527803176
:100C3800F1278031E7278031DA2680319327803108
:100C4800442780310319B60A0830A12780310930BA
:100C58000E3E8600E2278031B52780311927803182
:100C6800AD278031442780310319B60A1230A127F5
:100C7800803113300E3ED727803114300E3E860067
:100C8800213065278031F6278031E7278031DA2641
:100C9800803193278031442780310319B60A1530F3
:100CA800A127803116300E3ED727803117300E3EEF
:100CB8008600213065278031F1278031E727803190
:100CC800DA26803193278031442780310319B60A08
:100CD8001830A127803119300E3E8600E227803176
:100CE800B527803119278031AD27803144278031DD
:100CF8000319B60A2230A127803123300E3ED727A8
:100D0800803124300E3E8600213065278031F62759
:100D18008031E7278031DA268031932780314427D4
:100D280080310319B60A2530A127803126300E3EBE
:100D3800D727803127300E3E860021306527803145
:100D4800F1278031E7278031DA26803193278031F7
:100D5800442780310319B60A2830A1278031293069
:100D68000E3E8600E2278031B52780311927803171
:100D7800AD278031442780310319B60AA030A0007E
:100D8800A1013508A200BC2580313508A03E8600A7
:100D980087014D088100B50A9B2780314E088100E4
:100DA800B50A0319B60A3508F5003E2FA801A901AE
:100DB800AA01AB0123082204210420040319102FDF
:100DC800AC01AC0AA31BED2EA035A10DA20DA30DFD
:100DD800E52EA835A90DAA0DAB0D23082702031D82
:100DE800FF2E22082602031DFF2E21082502031DBF
:100DF800FF2E20082402031C0A2F2008A402210821
:100E0800A53B2208A63B2308A73B2814A336A20C1F
:100E1800A10CA00CAC0BED2E2B08A3002A08A200F5
:100E28002908A1002808A0000800A801A901AA0112
:100E3800AB01201C272F2408A8072508A93D260850
:100E4800AA3D2708AB3DA435A50DA60DA70DA336D1
:100E5800A20CA10CA00C2308220421042004031DC9
:100E68001D2F2B08A3002A08A2002908A100280882
:100E7800A00008008C1723009E16210011160800F8
:100E8800BF003508A03E8600870142088100B50AE8
:100E98000319B60A3508A03E860041088100B50A44
:100EA8000319B60A3508A03E860040088100B50A35
:100EB8000319B60A3508A03E86003F088100B50A26
:100EC80008000318223087000108B100B201B301FD
:100ED800B4013808C2003708C100BF01C0013B088F
:100EE800AD003C08AE003D08AF003E08B0002F083A
:100EF800B0002E08AF002D08AE00AD012D08BF04CC
:100F08002E08C0042F08C1043008C2043108BF04E9
:100F18003208C0043308C1043408C2040800230896
:100F2800C2002208C1002108C000200808000319D7
:100F3800B60A3508A03E860008000E3E860021301D
:100F48000318223087000108B700B801B901BA01B7
:100F580008002308C2002208C1002108C000200898
:100F680008000108BB00BC01BD01BE013908C20070
:100F78003808C1003708C000BF013B08BF043C085F
:100F8800C0043D08C1043E08C2045030A000A101BD
:100F9800A201A3014208A7004108A6004008A50035
:100FA8003F08A4000800860021300318223087007B
:100FB8000108BB00BC01BD01BE01080021300318B7
:100FC800223087000800A0004208A7004108A600B8
:100FD8004008A5003F08A40008000630A301A201AC
:0E0FE800A100C4340130A301A201A1006734AE
:101FA8006400800101310130FE020030FF3B7F08F0
:101FB8007E0403190034D52F770876040319FB2F04
:101FC800FA01FA0AF71BEB2FF635F70DE52F77081C
:101FD8007902031DF12F76087802031CF72F760883
:101FE800F8027708F93BF736F60CFA0BEB2F79086D
:081FF800F7007808F60008006C
:020000040001F9
:02000E00BCD95B
:00000001FF
