:04000000803189289A
:1000080080312000111C2528FF3011109700C130C5
:1000180096000630730203181328F30A1A28730887
:10002800063A031D1A280B30F3007C15FC1D252801
:1000380023009E1C2528FC119E1220008C13F4011D
:10004800F5010B1D54283D30200095000B11F00AD6
:100058000319F10A1430F600F7017108F900700865
:10006800F80080318C208031770876040319FC145D
:100078001030F6000E30F7007108F9007008F8002B
:1000880080318C2080317708760403197C140E3077
:100098007102103003197002031C5428F001F10199
:1000A80023009D1859281D1D5B281D121D162000B0
:1000B800911E7428911223001908FB007C197428DA
:1000C800F3017208203E8600013087007B0881001A
:1000D800F20A7208403A031D74280B307C15F300AD
:1000E8002000111E090011127508740203188528D2
:1000F8007408A03E86008701010823009A00F40ACC
:10010800090021001112FC15090088018B312C2BE4
:10011800770876040319A728FA01FA0AF71B972823
:10012800F635F70D912877087902031D9D28760882
:100138007802031CA3287608F8027708F93BF736FB
:10014800F60CFA0B97287908F7007808F6000800EB
:100158006400800101310130FE020030FF3B7F085E
:080168007E0403190034AD28E8
:101080002000C000A801A80AE62388310230A6008B
:101090004008A70010301A23883140084E3E8600D1
:1010A0008701010B75284708C52488310E23883134
:1010B000A024883186002C0887002A08810031305E
:1010C000A00040080E238831A8248831013E860004
:1010D000213087004808810040084E3E86000230DB
:1010E00087018100CA01CA0AB7280D258831023A52
:1010F000031D97284708C52488310E238831A02472
:101100008831103E552488314808C52488310E2383
:101110008831A0248831113E5524883140084E3E44
:1011200086000330870181000230CA00B7280D25F0
:101130008831033A031DBE284708C52488310E2391
:101140008831A0248831203E552488314808C524A0
:1011500088310E238831A0248831213E55248831DE
:1011600040084E3E860087018101810ACA01A6011E
:10117000A60A4008A7001430AC2388310230A6002C
:101180004008A70001301A238831C71FCA28FF3042
:10119000C706C8063130A00040080E238831A824B5
:1011A0008831083E86002130832488310E2388311F
:1011B000B0248831093E86002130602488313130E6
:1011C000A00040080E238831A8248831083EEF246F
:1011D00088310E238831A8248831093E07258831BB
:1011E00000303F02333003193E02031C03293E083E
:1011F000CA2488310E238831D32488310C3E8600DE
:101200002130B82488310230A6004008A7000230FF
:101210001A238831C71F0F29FF30C706C80631308F
:10122000A00040080E238831A8248831183E86008B
:1012300000302B3D832488310E238831B02488313F
:10124000193E86000030353D602488313F08C524B2
:1012500088310E238831A0248831183E55248831E6
:101260003E08C52488310E238831A0248831193ED8
:101270005524883100303F02333003193E02031CED
:101280004E293E08CA2488310E238831D324883160
:101290001C3E860000302F3DB82488310230A60065
:1012A0004008A70003301A238831C71F5A29FF308E
:1012B000C706C8063130A00040080E238831A82494
:1012C0008831283E860000302B3D832488310E2350
:1012D0008831B0248831293E86000030353D6024B5
:1012E00088313F08C52488310E238831A0248831F5
:1012F000283E552488313E08C52488310E23883184
:10130000A0248831293E5524883100303F023330F3
:1013100003193E02031C99293E08CA2488310E2372
:101320008831D32488312C3E860000302F3DB824EC
:1013300088310330A6004008A7000D301A238831F9
:101340003130A00040080E238831A8248831023EA5
:10135000E62488310E238831A8248831033E860094
:10136000F82488310E238831A8248831043EE124F2
:101370008831DB2488310E301A2388314708C52490
:1013800088310E238831A0248831123E55248831BB
:101390004808C52488310E238831A0248831133EA3
:1013A000552488314908C52488310E238831A0246A
:1013B0008831143E552488310330A6004008A70028
:1013C0000F301A2388314708C52488310E2388310D
:1013D000A0248831223E552488314808C52488310C
:1013E0000E238831A0248831233E552488314908B2
:1013F000C52488310E238831A0248831243E552409
:1014000088310330A6004008A7000A301A2388312B
:101410003130A00040080E238831A8248831053ED1
:10142000E62488310E238831A8248831063E8600C0
:10143000F82488310E238831A8248831073EE1241E
:101440008831DB2488310B301A2388314708C524C2
:1014500088310E238831A0248831153E55248831E7
:101460004808C52488310E238831A0248831163ECF
:10147000552488314908C52488310E238831A02499
:101480008831173E552488310330A6004008A70054
:101490000C301A2388314708C52488310E2388313F
:1014A000A0248831253E552488314808C524883138
:1014B0000E238831A0248831263E552488314908DE
:1014C000C52488310E238831A0248831273E552435
:1014D00088310230A6004008A70007301A2388315F
:1014E0003130A00040080E238831A82488310A3EFC
:1014F00086002130832488310E238831B02488313E
:101500000B3E86002130602488313130A000400835
:101510000E238831A82488310A3EEF2488310E2317
:101520008831A82488310B3E072588310230A60077
:101530004008A70008301A2388313130A000400845
:101540000E238831A82488311A3E860000302B3DB6
:10155000832488310E238831B02488311B3E8600D5
:101560000030353D602488313F08C52488310E2382
:101570008831A02488311A3E552488313E08C5247C
:1015800088310E238831A02488311B3E55248831B0
:101590000230A6004008A70009301A2388313130F4
:1015A000A00040080E238831A82488312A3E8600F6
:1015B00000302B3D832488310E238831B0248831BC
:1015C0002B3E86000030353D602488313F08C5241D
:1015D00088310E238831A02488312A3E5524883151
:1015E0003E08C52488310E238831A02488312B3E43
:1015F00055248831A601A60A4008A70011301A23F5
:1016000088314708C52488310E238831A0248831C9
:10161000303E55248831A8014008E62BA200A101E4
:1016200020082218A107A035A236A208031D102BFE
:1016300021080800A800BE238831A9012608290234
:10164000031808002908473E860000308701BE23A2
:1016500088318100A90A1E2B0E30840021308500BC
:101660006230FE000030FF018031AC20883147300D
:10167000FC01F001F101F201F301F401F501840034
:10168000003085000C30FE000030FF008031AC20BF
:101690008831A0308400003085004030FE000030EA
:1016A000FF008031AC20883120308400013085007B
:1016B0004030FE000030FF008031AC208831200037
:1016C000612B19258831192488310130852388310F
:1016D0008C132924883164007C1D702B6F25883180
:1016E0006400FC1C772B0130FC1040208831640022
:1016F0007C1C6C2B01307C10332488310038031D96
:101700006C2B0130852388316C2BAA00A801A80A14
:10171000E6238831002588311330AC23883120300E
:10172000A000A101A201A301FD2388311325883166
:101730001630AC238831002588311730AC2388312E
:10174000132588311430AC238831CF01CF0AD00162
:10175000D00AA8012A08E62BA8008038BE238831C9
:10176000A901260829020318080029084A3E860014
:1017700087010108BE238831A90AB12BA000A1016D
:10178000A201A301A40124009100DD2B0F3024024B
:10179000031DD42BFF302302031DD42BFF30220264
:1017A000031DD42BFF3021020318E02BA10A0319DB
:1017B000A20A0319A30A0319A40A2000911DC62B2B
:1017C000240011082000A50091110800A900280894
:1017D0000319F52B290BEE2B8D11F62B2908023A54
:1017E000031DF72B0D108D15F72B8D150D14A00172
:1017F000A00AA101A201A301FD2BA401A501A6013C
:10180000A70123082702031D0F2C22082602031D0F
:101810000F2C21082502031D0F2C20082402031879
:101820000800A40A0319A50A0319A60A0319A70A9E
:10183000012C2400951215109514151195150330DF
:1018400092009C171C171D12951620008D150D1463
:1018500008000B30D200F2017C11F501F401C9300F
:10186000FC11D10008002000AB00AA01AA0AA801BF
:10187000A80AE6238831A601A60A2B08A70016307D
:101880001A238831C708031D4F2CA601A60A2B086E
:10189000A70017301A2388314708403A031DAA01D0
:1018A000A8012B08E6232A080800AD0000302C3DD3
:1018B000AE002D0886002E0887002A088100080047
:1018C00087000108B600B701B801B9014808BA009D
:1018D000BB01BC01BD01B6073B08B73D3C08B83DA4
:1018E0003D08B93D3608AC073708AD3D3808AE3D78
:1018F0003908AF3DAF36AE0CAD0CAC0C2D08BF00B7
:101900002C08BE00080087000108AC00AD01AE0144
:10191000AF014708B000B101B201B301AC07310813
:10192000AD3D3208AE3D3308AF3D2E08AF002D0867
:10193000AE002C08AD003130AC01A000400808001A
:10194000DD3EAB0020300318890AAC002B080800EC
:10195000DD3EAA0020300318890AAB002A080800DF
:10196000DD3EB40020300318890AB50034080800B1
:1019700087002A08810741312B08813D41312C081D
:10198000813D41312D08813D0800AA003130A00081
:1019900040080800AA003F08AB003130AC01AD019F
:1019A000A00040080800DD3EAE0020300318890A80
:1019B000AF002E08080081000330A6004008A700F1
:1019C0000800860021308700490808008600213081
:1019D0008700470881003130A000400808008600D9
:1019E000213087003F0881003130A0004008080006
:1019F00021308700480881003130A00040080800ED
:101A00004030CA00A601A60A2A08A70008008600DE
:101A1000213087003E088100080040084E3E8600C5
:101A2000870101080800CA01A601A60A2A08A70022
:101A3000080068308B13210099001A1E1D2D1030EC
:101A400023008C0020008C0121008C130C130C1639
:101A50008C150C158C140C1423008D012100FF3003
:101A60000D108D140D158D110D128D120D138D1776
:101A700024008D00C03021009E0022009D171E14FE
:101A80001D1723001E121E159F159C0167309B0019
:101A90001E129D171E131F129E1621009116230061
:101AA00047301D131D16210095053D308B160B1177
:101AB000200095003F30980518169816FF309913AE
:101AC0009700C13096001814111021001114111242
:101AD0001708C139143897000B178B17080020001E
:101AE000C501C6010D18762D0D14772D0D1022009D
:101AF000200820005106031DB22D2030A000013027
:101B0000A1007208FE3EA200B525883172081E3E73
:101B100086000130870072081F3E84000130850076
:101B20000008C4000108C30044084E06031D9A2D96
:101B300043084D06031DB22D220022082000C600D6
:101B4000220023082000C500A82DDA258831B22DF7
:101B50004608033A0319AD2DB22D4508843A0319FE
:101B6000A52DB22D7C11F2010800FF30CD00CE0072
:101B7000A401220824020318080024082007860074
:101B800021080318890A87000108CD06A5014D0820
:101B9000A3000130A305CE36CD0C230BD32D01308D
:101BA000CD06A030CE060830A50A2502031CC72D9D
:101BB000A40AB92D2000C930B501B6012100A0004A
:101BC0002000B50AA8278831033087018100B50AB3
:101BD000A827883124308100B50A0319B60A1030CD
:101BE000860021308700F32788311130F9278831AA
:101BF00004300E3E860075278831EE278831DF27B6
:101C00008831EA268831A027883154278831031982
:101C1000B60A1330860021308700F327883114304C
:101C2000F927883107300E3E860075278831E9276D
:101C30008831DF278831EA268831A0278831542768
:101C400088310319B60A1630860021308700F32741
:101C5000883109300E3E8600B62788312927883121
:101C6000AE278831542788310319B60A1230D82795
:101C70008831F32788311330D82788310108BB0019
:101C8000BC01BD01BE011430D827883175278831C9
:101C9000EE278831DF278831EA268831A02788316E
:101CA000542788310319B60A1530D8278831F3270D
:101CB00088311630D82788310108BB00BC01BD012E
:101CC000BE011730D827883175278831E927883138
:101CD000DF278831EA268831A027883154278831C8
:101CE0000319B60A1830D8278831F32788311930FC
:101CF000D8278831B627883129278831AE278831FF
:101D0000542788310319B60A2230D8278831F3279F
:101D100088312330D82788310108BB00BC01BD01C0
:101D2000BE012430D827883175278831EE278831C5
:101D3000DF278831EA268831A02788315427883167
:101D40000319B60A2530D8278831F3278831263081
:101D5000D82788310108BB00BC01BD01BE01273076
:101D6000D827883175278831E9278831DF278831DE
:101D7000EA268831A0278831542788310319B60A0A
:101D80002830D8278831F32788312930D82788315F
:101D9000B627883129278831AE27883154278831E2
:101DA0000319B60AA030A000A1013508A200B5258C
:101DB00088313508A03E860087014D088100B50AAC
:101DC000A82788314E088100B50A0319B60A3508DC
:101DD000F5004E2FA801A901AA01AB012308220496
:101DE000210420040319202FAC01AC0AA31BFD2EF3
:101DF000A035A10DA20DA30DF52EA835A90DAA0D94
:101E0000AB0D23082702031D0F2F22082602031DF6
:101E10000F2F21082502031D0F2F20082402031C69
:101E20001A2F2008A4022108A53B2208A63B23085C
:101E3000A73B2814A336A20CA10CA00CAC0BFD2EC2
:101E40002B08A3002A08A2002908A1002808A00046
:101E50000800A801A901AA01AB01201C372F240802
:101E6000A8072508A93D2608AA3D2708AB3DA435AB
:101E7000A50DA60DA70DA336A20CA10CA00C23083E
:101E8000220421042004031D2D2F2B08A3002A085F
:101E9000A2002908A1002808A00008008C17230030
:101EA0009E16210011160800BF003508A03E8600CE
:101EB000870142088100B50A0319B60A3508A03E19
:101EC000860041088100B50A0319B60A3508A03E0C
:101ED000860040088100B50A0319B60A3508A03EFD
:101EE00086003F088100B50A08000108B100B20170
:101EF000B301B4013808C2003708C100BF01C001F6
:101F00003B08AD003C08AE003D08AF003E08B00005
:101F10002F08B0002E08AF002D08AE00AD012D082F
:101F2000BF042E08C0042F08C1043008C2043108C1
:101F3000BF043208C0043308C1043408C2040800D6
:101F40002308C2002208C1002108C00020080800A0
:101F50000319B60A3508A03E860008002308C2000F
:101F60002208C1002108C000200808000108BB00A9
:101F7000BC01BD01BE013908C2003808C1003708E4
:101F8000C000BF013B08BF043C08C0043D08C104B9
:101F90003E08C2044E30A000A101A201A3014208E4
:101FA000A7004108A6004008A5003F08A4000800BB
:101FB0000E3E860021300318223087000800A00062
:101FC0004208A7004108A6004008A5003F08A40059
:101FD00008000630A301A201A100E5340130A301ED
:101FE000A201A10067340108B700B801B901BA0124
:101FF000080086000108BB00BC01BD01BE0108004D
:020000040001F9
:02000E00A4D973
:00000001FF
