:040000008031B12872
:1000080080310B1D2A283D30200095000B11F80A7D
:100018000319F90A780807390319FB141030F0009E
:100028000E30F1007908F3007808F2008231BC2222
:1000380080317108700403197B140E307902103076
:1000480003197802031C2A28F801F90123009D18D6
:100058002F281D1D31281D121D162000911E6728EE
:10006800911223001908F70021004C08023A0319DD
:1000780067287708C03A03194C0803194D287708F0
:10008800C03A031D51284C0B512804304B02031869
:100098005128CC01CC0ACB015D287708C03A031D52
:1000A8005D284C0B5D2804304B02031C5D28023090
:1000B800CC004B08CD3E86008701770881001330BD
:1000C8004B02031CCB0A2000111E0900111221004B
:1000D800210820020318AD282008A33E86008701C6
:1000E8000108C03A031D9128200803199128210806
:1000F800FF3EF500FF3003180030F60020087506B3
:10010800760403199128DB3023009A002100200887
:10011800A33E8600DC30810009002008A33E86004B
:1001280087010108DB3A031DA328DB3023009A006E
:1001380021002008A33E8600DD3081000900200848
:10014800A33E86008701010823009A002100A00A27
:10015800090011120230A200090088018D31BD2D5D
:0A016800003433342E3430343334C5
:100200008131820702298A31B62A883132288A311F
:10021000C72A1B290E30C7002130C80031300E3EDE
:10022000C900213003182230CA0030291030322290
:10023000813110302D294208E03A031D08004108A1
:10024000013A03190A29033A03191629013A031D31
:1002500008002030322281312030C9070318CA0A31
:10026000CB01C0302100A3002000CB0A4B08A33EE5
:10027000860087015B080D2281318101CB0A4B0882
:10028000A33E86008101CB0A4B08A33E8600810174
:10029000CB0A4B08A33E86002322813113228131F1
:1002A000482281310D228131232281311322813173
:1002B000402281310D22813123228131132281316B
:1002C000292281310D22813147080C3EF9218131EB
:1002D00084004808052281314708023EF921813116
:1002E000033EF9218131043EF9218131013EF9219A
:1002F0008131053EF9218131063EF9218131073EE8
:10030000F9218131083EF9218131093EF9218131FC
:100310000A3EF92181310B3E84000030483D052220
:1003200081311D22813113228131482281310D22F8
:1003300081311D22813113228131402281310D22F0
:1003400081311D22813113228131292281310D22F7
:10035000813149080C3EED21813184004A08052293
:1003600081314908023EED218131033EED21813189
:10037000043EED218131013EED218131053EED212B
:100380008131063EED218131073EED218131083E6C
:10039000ED218131093EED2181310A3EED210B3EF7
:1003A000840000304A3D850000088100CB0A4B08DC
:1003B000FE3EA000A5308831C6208131C3004B0825
:1003C000A33E8600870143080D22C0308100CB0A7E
:1003D0004B082100A10089310229840000304A3DE8
:1003E000850000088100CB0A4B08A33E860049081F
:1003F000080084000030483D850000088100CB0AD9
:100400004B08A33E860047080800850000088100CD
:10041000CB0A4B08A33E860008008100CB0A4B089C
:10042000A33E860008008500003FC300013FC400D2
:10043000023FC500033FC600080049080C3E840087
:1004400000304A3D080047080C3E84000030483D1B
:1004500008004408C3004508C4004608C500C6019A
:10046000430808000E3EC700213003182230C800A0
:1004700031300E3EC900213003182230CA00080076
:100480004508C3004608C400C501C601430808006A
:10049000C300C401C501C60108008B1368302100E8
:1004A00099001A1E512A103023008C0020008C0164
:1004B00021008C130C130C168C150C158C140C14B9
:1004C00023008D0121000D108D140D158D110D12BD
:1004D0008D120D138D17FF3024008D00C0302100C8
:1004E0009E0022009D171E141D1723001E121E15AC
:1004F0009F159C0133309B001E129D171E131F1267
:100500009E162100911623001D131D164730210051
:1005100095058B160B113D30200095002100170822
:10052000C13914389700CC01A2010E302000A00080
:100530002130A100A201A3016230A400A501A322E1
:100540000B178B1708002108A8002008A700FF3010
:10055000A407031CA503240A0319250A031908008C
:100560002208A600270886002808870026088100A0
:10057000A70A0319A80AA72A710870040319D72A21
:10058000F401F40AF11BC72AF035F10DC12A7108F4
:100590007302031DCD2A70087202031CD32A70084F
:1005A000F2027108F33BF136F00CF40BC72A730822
:1005B000F1007208F0000800640080010131013090
:1005C000FE020030FF3B7F087E0403190034DD2A61
:0205D0000F34E6
:101064002027883121004C08023A0030031901304E
:10107400DD268831422088312100CC01CB01322881
:101084004E208831CE00CE08031D4B28E420883141
:1010940069294E0B08004F292000A801AA01AA0AB9
:1010A4006E228831031D582825082A0203189A281D
:1010B4002000AA228831DC3A031D6728280B672800
:1010C4002A08CD3E8600C0307228AA228831DD3A33
:1010D400031D7428280B74282A08CD3E8600DB30B3
:1010E40081009828AA228831DB3A031D98282A080F
:1010F400A9006E228831031D8128250829020318BE
:10110400902820002908CD3E860087012908CE3E7C
:101114008400850100088100A90A7B282000AA0315
:101124002100CB032000A801A80A5128A8015128B6
:101134002000A70121004E0820005B060319A52802
:101144000230A700C42821004D08C03A031DB2286C
:101154004B08CC3E860087010108C03A0319B62823
:101164002000A701A70AC4284B08CB3E84008501B0
:101174004B08FC3E2000A000CF30C620883100067A
:10118400031DB22827080800A100A401A201200819
:1011940022020318E2282108860087010108A40618
:1011A400A10AA301A41FDA28A4350730A406DB286A
:1011B400A435A30A08302302031CD428A20AC92890
:1011C40024080800C101C0302100A3002000C10A86
:1011D40041087A228831C10A4108A33E8600810170
:1011E400C10A4108A33E86008101C10A4108A33E09
:1011F4008600C0308100C10A41082100A1000229F3
:10120400A201A20AA00120008C1723009E1621002F
:101214001116B02288312100220B242920009222A9
:101224008831031D1F2900303F02031D1F29003090
:101234003E02031D1F2900303D02031824294421C6
:1012440088310D29B02288313A2920009222883130
:10125400031D362900303F02031D362900303E02AB
:10126400031D362900303D0203183D2944218831ED
:1012740023009E1C27292100111223009E12200006
:101284008C130800FB1C0800FB1001300423883178
:1012940064000230042364000800C101C03021004E
:1012A400A3002000C10A41087A228831C10A4108FA
:1012B400A33E86008030A42288318930A42288315C
:1012C400C0308100C10A41082100A1000229210087
:1012D4004F08103A03197E29013A03190800313ADC
:1012E40003198629013A03190800113A03199129AF
:1012F400703A031D0800922950089C228831E03A74
:101304004C04031D0800DA295208083A031D08009A
:1013140050089C22C2004C08C1008131092993293C
:101324001F2A2000C201C0302100A3002000C20AED
:101334004208A33E860087015B0868228831810148
:10134400C20A4208A33E86008101C20A4208A33EA3
:1013540086008101C20A4208A33E860053306822F7
:1013640088315330682288315030682288314F30B8
:1013740068228831573068228831453068228831A4
:1013840052308100C20A4208FE3EA000A530C620A9
:101394008831C1004208A33E8600870141086822C3
:1013A4008831C0308100C20A42082100A10002290C
:1013B400C201C0302100A3002000C20A42087A22E0
:1013C4008831C20A4208A33E86008101C20A42084B
:1013D400A33E86008101C20A4208A33E8600810121
:1013E400C20A4208A33E86008101C20A4208A33E03
:1013F40086008101C20A4208A33E86003030802262
:101404008831A33E8600613080228831FE3EA000F0
:10141400A530C6208831C1004208A33E860087015A
:1014240041088100C20A4208A33E8600C030810000
:10143400C20A42082100A10002292000C201C030D2
:101444002100A3002000C20A42087A22C20A4208EC
:10145400A33E86008101C20A4208A33E86008101A0
:10146400C20A4208A33E86008101C20A4208A33E82
:101474008600B53080310A008A318B22B630803143
:101484000A008A318B22B73080310A008A318B22DC
:10149400B83080310A008A318100C20A4208FE3E17
:1014A400A000A530C6208831C1004208A33E8600B2
:1014B400870141088100C20A4208A33E8600C03069
:1014C4008100C20A42082100A10002298100C20A47
:1014D4004208A33E8600080021004B08FF3E20007E
:1014E400A500FF3003180030A600803A803C0800B5
:1014F400A33E860087015B08810008000E3E84003D
:10150400213003182230850000088100C20A4208F5
:1015140008008100C20A4208A33E86008701080031
:10152400BD0A0319BE0A0319BF0A0319C00A103001
:10153400400208002000CD00210051082000CC000A
:101544004D0808008100C10A4108A33E8600080036
:101554002A08CD3E86008701010808002000BD014D
:10156400BE01BF01C0010800202788310030FB18EC
:101574000130DD268831FB100130042388316400FA
:101584000230042388316400B62A202788310030D1
:101594007B180130DD2688317B100130E22288314E
:1015A4000038031DD82A0130392688310230E2225E
:1015B40088310038031DC72A023039268831C72AEA
:1015C4002000AB00AA01AA0AA801A80A9A26883119
:1015D400A601A60A2B08A7001630AB258831D0082F
:1015E400031DFE2AA601A60A2B08A7001730AB2567
:1015F40088315008403A031DAA01A8012B089A26F5
:101604002A0808002000BC00A801A80A9A268831EC
:101614000230A6003C08A7001030AB2588313C08F6
:10162400553E86008701010B342B5008CB278831A7
:101634009F258831DD3EAB0020308E27883151084C
:10164400CB2788319F258831DE3EAB0020308E27A2
:1016540088313C08553E8600870102308100D30161
:10166400D30A762BE0278831023A031D562B500803
:10167400CB2788319F258831ED3EAB0020308E2763
:1016840088315108CB2788319F258831EE3EAB0045
:1016940020308E2788313C08553E86008701033070
:1016A40081000230D300762BE0278831033A031DF2
:1016B4007D2B5008CB2788319F258831FD3EAB0018
:1016C40020308E2788315108CB2788319F258831D7
:1016D400FE3EAB0020308E2788313C08553E860004
:1016E40087018101810AD301A601A60A3C08A7004B
:1016F4001430602688310230A6003C08A70001306F
:10170400AB258831D01F892BFF30D006D10631306C
:10171400A0003C089F258831E63E982788319F2504
:101724008831E53E860020304D2788319F25883159
:10173400E53EAB0020308E2788313A08CB2788312C
:101744009F258831E63EAB0020308E27883100305B
:101754003B02333003193A02031CBA2B3A08D02750
:1017640088319F258831E93E86002030BC278831A6
:101774000230A6003C08A7000230AB258831D01FF8
:10178400C62BFF30D006D1063130A0003C089F257F
:101794008831F63E982788319F258831F53E8600AA
:1017A40020304D2788319F258831F53EAB0020300D
:1017B4008E2788313A08CB2788319F258831F63E19
:1017C400AB0020308E27883100303B0233300319C0
:1017D4003A02031CF72B3A08D02788319F25883119
:1017E400F93E86002030BC2788310230A6003C0830
:1017F400A7000330AB258831D01F032CFF30D0065F
:10180400D1063130A0003C089F258831063E860071
:101814002130AB2788319F258831053E8600213051
:101824004D2788319F258831053EAB0021308E2716
:1018340088313A08CB2788319F258831063EAB0092
:1018440021308E27883100303B02333003193A02AD
:10185400031C362C3A08D02788319F258831093E4D
:1018640086002130BC2788310330A6003C08A7003D
:101874000D30AB2588315008CB2788319F2588311E
:10188400DF3EAB0020308E2788315108CB278831CA
:101894009F258831E03EAB0020308E2788315208E6
:1018A400CB2788319F258831E13EAB0020308E273D
:1018B40088310330A6003C08A7000E30AB258831E0
:1018C4005008CB2788319F258831EF3EAB0020306C
:1018D4008E2788315108CB2788319F258831F03EE7
:1018E400AB0020308E2788315208CB2788319F25C2
:1018F4008831F13EAB0020308E2788310330A600BA
:101904003C08A7000F30AB2588315008CB2788311D
:101914009F258831FF3EAB0020308E278831510847
:10192400CB2788319F258831003EAB0021308E279C
:1019340088315208CB2788319F258831013EAB007E
:1019440021308E2788310330A6003C08A7000A30D6
:10195400AB2588315008CB2788319F258831E23E5A
:10196400AB0020308E2788315108CB2788319F2542
:101974008831E33EAB0020308E2788315208CB27D4
:1019840088319F258831E43EAB0020308E27883192
:101994000330A6003C08A7000B30AB258831500863
:1019A400CB2788319F258831F23EAB0020308E272B
:1019B40088315108CB2788319F258831F33EAB000D
:1019C40020308E2788315208CB2788319F258831D3
:1019D400F43EAB0020308E2788310330A6003C084B
:1019E400A7000C30AB2588315008CB2788319F25C0
:1019F4008831023EAB0021308E2788315108CB2735
:101A040088319F258831033EAB0021308E278831F1
:101A14005208CB2788319F258831043EAB00213002
:101A24008E2788310230A6003C08A7000730AB257A
:101A340088313130A0003C089F258831E83E982742
:101A440088319F258831E73E860020304D27883134
:101A54009F258831E73EAB0020308E2788313A0835
:101A6400CB2788319F258831E83EAB0020308E2774
:101A740088310230A6003C08A7000830AB25883125
:101A84003130A0003C089F258831F83E98278831E2
:101A94009F258831F73E860020304D2788319F25C9
:101AA4008831F73EAB0020308E2788313A08CB27A7
:101AB40088319F258831F83EAB0020308E2788314D
:101AC4000230A6003C08A7000930AB25883131302C
:101AD400A0003C089F258831083E86002130AB27B2
:101AE40088319F258831073E860021304D27883173
:101AF4009F258831073EAB0021308E2788313A0874
:101B0400CB2788319F258831083EAB0021308E27B2
:101B14008831A601A60A3C08A7001130AB258831FC
:101B24005008CB2788319F2588310D3EAB002130EA
:101B34008E278831A8013C089A2EA200A101200812
:101B44002218A107A035A236A208031DA12D210841
:101B54000800A80072268831A90126082902031862
:101B640008002908503E860087010030722688311B
:101B74008100A90AAF2D0E30840021308500623027
:101B8400FE000030FF018231DC228831FB01F801C4
:101B9400F901FA0150308400003085001830FE004D
:101BA4000030FF008231DC228831A0308400003014
:101BB40085004130FE000030FF008231DC22883194
:101BC4000130E8000330E9000530EA002000EA2D86
:101BD40082314D228831CD26883101303926883131
:101BE4000230392688318C1364000F302000DB006A
:101BF40025278831CF014F08A000A101A035A10DF0
:101C04000330A0070130A13D4F08F0268831CF0AE8
:101C140003304F02031CFD2D8B1764002000DA01F2
:101C240064305802031C192E5C30D8001B2E04307B
:101C3400D807580884008501001B801B102E001E45
:101C4400252E801E102E162788312000102E4F08B6
:101C5400683E860087010108813100218831200017
:101C6400CF0A03304F02031C292E8031B128AA0069
:101C7400A801A80A9A268831D9278831133060260A
:101C840088312030A000A101A201A301B12688312E
:101C9400E6278831163060268831D92788311730F5
:101CA40060268831E6278831143060268831D601D1
:101CB400D60AD701D70AA8012A089A2EA800803884
:101CC40072268831A9012608290203180800290868
:101CD400533E86008701010872268831A90A652EC1
:101CE400A000A101A201A301A40124009100912E4E
:101CF4000F302402031D882EFF302302031D882E7B
:101D0400FF302202031D882EFF3021020318942E77
:101D1400A10A0319A20A0319A30A0319A40A200099
:101D2400911D7A2E240011082000A50091110800AD
:101D3400A90028080319A92E290BA22E8D11AA2E59
:101D44002908023A031DAB2E0D108D15AB2E8D15EF
:101D54000D14A001A00AA101A201A301B12EA401A6
:101D6400A501A601A70123082702031DC32E2208EB
:101D74002602031DC32E21082502031DC32E20089D
:101D8400240203180800A40A0319A50A0319A60AC1
:101D94000319A70AB52E24009512151095141511D0
:101DA4009515033092009C171C171D1295162000E0
:101DB4008D150D1408002000A000D91258088400C5
:101DC400850120080319E82E00120800001E801E59
:101DD400ED2ED91608003F00ED030800A200D9102B
:101DE4005C30A300DA01230886008701011B0D2F54
:101DF4002217A2152308013E86002008C03F2108AF
:101E0400C13F2308033E860081012308860022087F
:101E14008100D91008000430A3070330DA0A5A02FB
:101E2400031CF52ED91408002000580884008501ED
:101E3400023113008A001300820008002000DA0136
:101E4400EC2700000800D9018A1F322F3927883176
:101E540020278831472788310030DD26883116272E
:101E640064302000D8005C13601364130800580821
:101E74008400850102313F006F081B006E081B00BF
:101E8400200080153F00ED030800FF302000DA0039
:101E9400EC27000008000318890A87000108B20033
:101EA400B301B401B5013408B5003308B4003208F5
:101EB400B300B2015008B600B701B801B90138083F
:101EC400B9003708B8003608B700B6013608B207BB
:101ED4003708B33D3808B43D3908B53D3208AE077C
:101EE4003308AF3D3408B03D3508B13D2E08AA078C
:101EF4002F08AB3D3008AC3D3108AD3DAD36AC0CE0
:101F0400AB0CAA0C2B08BB002A08BA003B08AA0099
:101F14003130A0003C0808000318890AAC002B08E3
:101F240086002C0887002A088100080086002030DB
:101F34000318890A87000108AA00AB01AC01AD01AE
:101F44005108AE00AF01B001B1013130A0003C082E
:101F540008000318890A87000108AA00AB01AC0134
:101F6400AD015108AE00AF01B001B1013130A000A4
:101F74003C0808000318890A87002A0881074131B0
:101F84002B08813D41312C08813D41312D08813D93
:101F94000800AA003130A0003C080800AA003B0851
:101FA400AB00AC01AD013130A0003C08080040306A
:101FB400D300A601A60A2A08A70008003C08553E3B
:101FC4008600870101080800D301A601A60A2A0891
:101FD400A70008003F00ED032000591058088400B2
:101FE400850102313F006F081B006E081B002000B2
:0C1FF4008011001E80125A188016080090
:020000040001F9
:02000E00BCD95B
:00000001FF
