:040000008031B12872
:1000080080310B1D2A283D30200095000B11F80A7D
:100018000319F90A780807390319FB141030F0009E
:100028000E30F1007908F3007808F2008231C0221E
:1000380080317108700403197B140E307902103076
:1000480003197802031C2A28F801F90123009D18D6
:100058002F281D1D31281D121D162000911E6728EE
:10006800911223001908F70021004C08023A0319DD
:1000780067287708C03A03194C0803194D287708F0
:10008800C03A031D51284C0B512804304B02031869
:100098005128CC01CC0ACB015D287708C03A031D52
:1000A8005D284C0B5D2804304B02031C5D28023090
:1000B800CC004B08CD3E86008701770881001330BD
:1000C8004B02031CCB0A2000111E0900111221004B
:1000D800210820020318AD282008A33E86008701C6
:1000E8000108C03A031D9128200803199128210806
:1000F800FF3EF500FF3003180030F60020087506B3
:10010800760403199128DB3023009A002100200887
:10011800A33E8600DC30810009002008A33E86004B
:1001280087010108DB3A031DA328DB3023009A006E
:1001380021002008A33E8600DD3081000900200848
:10014800A33E86008701010823009A002100A00A27
:10015800090002301112A200090088018E313C2EDC
:0A016800003433342E3430343334C5
:1002000081318207022988311F2888312F288831BF
:10021000542823290E30CB002130CC0031300E3E43
:10022000CD00213003182230CE00332910302D228A
:10023000813110301F2920302D2281312030CD070F
:100240000318CE0A33294608E03A03192829F02971
:100250004508013A03190A29033A03191629013AF4
:1002600003191B29F029C030CF012100A300200071
:10027000CF0A4F08A33E860087015F081122813113
:100280008101CF0A4F08A33E86008101CF0A4F08A3
:10029000A33E86008101CF0A4F08A33E8600272295
:1002A0008131172281314C22813111228131272263
:1002B000813117228131442281311122813127225B
:1002C0008131172281313B228131112281314B084A
:1002D0000C3EFD21813184004C08092281314B08FC
:1002E000023EFD218131033EFD218131043EFD218D
:1002F0008131013EFD218131053EFD218131063EE6
:10030000FD218131073EFD218131083EFD218131F2
:10031000093EFD2181310A3EFD2181310B3E8400E1
:1003200000304C3D09228131212281311722813157
:100330004C228131112281312122813117228131D8
:1003400044228131112281312122813117228131D0
:100350003B228131112281314D080C3EF121813146
:1003600084004E08092281314D08023EF12181317D
:10037000033EF1218131043EF1218131013EF12121
:100380008131053EF1218131063EF1218131073E67
:10039000F1218131083EF1218131093EF121813184
:1003A0000A3EF1210B3E840000304E3D85000008DE
:1003B0008100CF0A4F08FE3EA000A5308931892177
:1003C0008131C7004F08A33E8600870147081122EC
:1003D000C0308100CF0A4F082100A1008931C5211A
:1003E0000800840000304E3D850000088100CF0ADF
:1003F0004F08A33E86004D080800840000304C3DA5
:10040000850000088100CF0A4F08A33E86004B08F4
:100410000800850000088100CF0A4F08A33E86002F
:1004200008008100CF0A4F08A33E8600080085001F
:10043000003FC700013FC800023FC900033FCA0098
:1004400008004D080C3E840000304E3D08004B086B
:100450000C3E840000304C3D08000E3ECB002130A5
:1004600003182230CC0031300E3ECD00213003186D
:100470002230CE0008004808C7004908C8004A08D2
:10048000C900CA01470808004908C7004A08C8004F
:10049000C901CA0147080800C700C801C901CA014B
:1004A000080068308B13210099001A1E552A10305D
:1004B00023008C0020008C0121008C130C130C16DF
:1004C0008C150C158C140C1423008D012100FF30A9
:1004D0000D108D140D158D110D128D120D138D171C
:1004E00024008D00C03021009E0022009D171E14A4
:1004F0001D1723001E121E159F159C0133309B00F3
:100500001E129D171E131F129E1621009116230006
:1005100047301D131D16210095053D308B160B111C
:100520002000950021001708C139143897000E30BB
:10053000CC01A2012000A0002130A1006230A20164
:10054000A301A400A501A7220B178B1708002108FF
:10055000A8002008A700FF30A407031CA503240A55
:100560000319250A031908002208A6002708860097
:100570002808870026088100A70A0319A80AAB2AC1
:10058000710870040319DB2AF401F40AF11BCB2A69
:10059000F035F10DC52A71087302031DD12A7008C8
:1005A0007202031CD72A7008F2027108F33BF1367D
:1005B000F00CF40BCB2A7308F1007208F00008006D
:1005C0006400800101310130FE020030FF3B7F08F2
:0A05D0007E0403190034E12A0F3401
:10103E00D720883121004C08023A003003190130C4
:10104E00C4208831042188312100CC01CB011F2816
:10105E00D72088310030FB180130C4208831013090
:10106E00FB107923883164000230792388316400C3
:10107E002F28DD018A1F4D28F0208831D720883196
:10108E00FE2088310030C4208831192768302000B6
:10109E00DC006013641368130800D7208831003019
:1010AE007B180130C420883101307B106F208831CD
:1010BE000038031D65280130B826883102306F20B4
:1010CE0088310038031D54280230B8268831542840
:1010DE002000AB00AA01AA0AA801A80A9120883113
:1010EE00A601A60A2B08A70016302A268831D40896
:1010FE00031D8B28A601A60A2B08A70017302A2647
:10110E0088315408403A031DAA01A8012B089120EA
:10111E002A080800A90028080319A028290B9928D5
:10112E008D11A1282908023A031DA2280D108D1534
:10113E00A2288D150D14A001A00AA101A201A301E0
:10114E00A828A401A501A601A70123082702031DB3
:10115E00BA2822082602031DBA2821082502031DDB
:10116E00BA282008240203180800A40A0319A50AA5
:10117E000319A60A0319A70AAC282000A000DD1245
:10118E005C088400850120080319CF28001208008E
:10119E00001E801ED428DD1608003F00ED03080057
:1011AE002000DE01DC20000008003F00ED032000DF
:1011BE005D105C088400850102313F006F081B0042
:1011CE006E081B0020008011001E80125E18801613
:1011DE0008005C088400850102313F006F081B0087
:1011EE006E081B00200080153F00ED030800FF3045
:1011FE002000DE00DC200000080010218831D20023
:10120E00D208031D0D29A72188312C2A520B080064
:10121E00122A2000A801AA01AA0A32238831031D2E
:10122E001A2925082A0203185D2920006D2388310A
:10123E00DC3A031D2929280B29292A08CD3E8600D0
:10124E00C03034296D238831DD3A031D3729280B30
:10125E0037292A08CD3E8600DB30870181005B29C5
:10126E006D238831DB3A031D5B292A08A90032233E
:10127E008831031D4429250829020318532920000B
:10128E002908CD3E860087012908CE3E84008501BF
:10129E0000088100A90A3E292000AA032100CB03E1
:1012AE002000A801A80A1329A80113292000A701CC
:1012BE0021004E0820005F06031968290230A7009E
:1012CE00872921004D08C03A031D75294B08CC3ED5
:1012DE00860087010108C03A031979292000A70169
:1012EE00A70A87294B08CB3E840085014B08FC3E9C
:1012FE002000A000CF30892188310006031D7529FA
:10130E0027080800A100A401A20120082202031848
:10131E00A5292108860087010108A406A10AA301B8
:10132E00A41F9D290730A435A4069E29A435083094
:10133E00A30A2302031C9729A20A8C292408080059
:10134E00C030C5012100A3002000C50A45083E2378
:10135E008831C50A4508A33E86008101C50A4508A5
:10136E00A33E86008101C50A4508A33E8600C03013
:10137E008100C50A45082100A100C529A201A20AC3
:10138E00A00120008C1723009E1621001116732336
:10139E0088312100220BE729200055238831031DB7
:1013AE00E22900304302031DE22900304202031DF0
:1013BE00E229003041020318E72907228831D0299B
:1013CE0073238831FD29200055238831031DF92907
:1013DE0000304302031DF92900304202031DF92992
:1013EE00003041020318002A0722883123009E1C78
:1013FE00EA292100111223009E1220008C130800EE
:10140E00FB1C08000130FB10792388316400023088
:10141E00792364000800C030C5012100A30020001C
:10142E00C50A45083E238831C50A4508A33E8600F5
:10143E00803067238831893067238831C03081003E
:10144E00C50A45082100A100C52921004F08103A00
:10145E000319412A013A0319562A313A0319492A26
:10146E00013A0319562A113A0319542A703A0319EC
:10147E00552A562A50085F238831E03A5004031D3E
:10148E0008009E2A5208083A031D080050085F23E0
:10149E00C6005008C50081310929572AE32A0800E1
:1014AE002000C030C6012100A3002000C60A460855
:1014BE00A33E860087015F082C2388318101C60A6E
:1014CE004608A33E86008101C60A4608A33E860052
:1014DE008101C60A4608A33E860053302C2388316C
:1014EE0053302C23883150302C2388314F302C230D
:1014FE00883157302C23883145302C238831523097
:10150E008100C60A4608FE3EA000A530892188311A
:10151E00C5004608A33E8600870145082C23883166
:10152E00C0308100C60A46082100A100C529C0307E
:10153E00C6012100A3002000C60A46083E238831BA
:10154E00C60A4608A33E86008101C60A4608A33E87
:10155E0086008101C60A4608A33E86008101C60A9E
:10156E004608A33E86008101C60A4608A33E8600B1
:10157E008101C60A4608A33E8600303044238831D6
:10158E00A33E8600613044238831FE3EA000A53084
:10159E0089218831C5004608A33E8600870145088B
:1015AE008100C60A4608A33E8600C0308100C60AE6
:1015BE0046082100A100C5292000C030C601210027
:1015CE00A3002000C60A46083E23C60A4608A33ECC
:1015DE0086008101C60A4608A33E86008101C60A1E
:1015EE004608A33E86008101C60A4608A33E860031
:1015FE00B53080310A008B314F23B63087018031F0
:10160E000A008B314F23B730870180310A008B31AE
:10161E004F23B830870180310A008B318100C60A12
:10162E004608FE3EA000A53089218831C500460837
:10163E00A33E8600870145084F238831C0308100C4
:10164E00C60A46082100A100C5298100C60A46081F
:10165E00A33E8600080021004B08FF3E2000A50097
:10166E00FF3003180030A600803A803C0800A33EED
:10167E00860087015F08810008000E3E840021303D
:10168E0003182230850000088100C60A46080800AB
:10169E008100C60A4608A33E86000800C10A031947
:1016AE00C20A0319C30A0319C40A103044020800FF
:1016BE002000D100210051082000D0005108080060
:1016CE008100C50A4508A33E860008002A08CD3EC3
:1016DE0086008701010808002000C101C201C30174
:1016EE00C40108002000C000A801A80A912088317A
:1016FE000230A6004008A70010302A268831400884
:10170E00593E86008701010BAB2B54089127883177
:10171E001E2688317927883186002C0887002A08F2
:10172E0081005508912788311E2688317927883106
:10173E00013E232788314008593E8600023087013A
:10174E008100D701D70AED2BC4278831023A031D39
:10175E00CD2B5408912788311E2688317927883160
:10176E00103E232788315508912788311E2688314F
:10177E0079278831113E232788314008593E86004B
:10178E000330870181000230D700ED2BC42788314A
:10179E00033A031DF42B5408912788311E268831F5
:1017AE0079278831203E23278831550891278831A3
:1017BE001E26883179278831213E2327883140081B
:1017CE00593E860087018101810AD701A601A60A2A
:1017DE004008A7001430DF2688310230A6004008EA
:1017EE00A70001302A268831D41F002CFF30D406E2
:1017FE00D5063130A00040081E2688319E2788313C
:10180E00083E592788311E26883196278831093E91
:10181E002E2788311E26883179278831083E2327C6
:10182E0088313E08912788311E26883179278831E4
:10183E00093E2327883100303F02333003193E0220
:10184E00031C332C3E08A62788311E268831AF276D
:10185E0088310C3E812788310230A6004008A7004F
:10186E0002302A268831D41F3F2CFF30D406D506ED
:10187E003130A00040081E2688319E278831183E40
:10188E00592788311E26883196278831193E2E27F2
:10189E0088311E26883179278831183E23278831D2
:1018AE003E08912788311E26883179278831193EC6
:1018BE002327883100303F02333003193E02031CC8
:1018CE00722C3E08A62788311E268831AF27883114
:1018DE001C3E812788310230A6004008A700033045
:1018EE002A268831D41F7E2CFF30D406D5063130FF
:1018FE00A00040081E2688319E278831283E592791
:10190E0088311E26883196278831293E2E27883128
:10191E001E26883179278831283E232788313E08B4
:10192E00912788311E26883179278831293E232731
:10193E00883100303F02333003193E02031CB12CB4
:10194E003E08A62788311E268831AF2788312C3EC7
:10195E00812788310330A6004008A7000D302A26C3
:10196E0088315408912788311E268831792788318D
:10197E00023E232788315508912788311E2688314B
:10198E0079278831033E23278831560891278831DD
:10199E001E26883179278831043E2327883103306B
:1019AE00A6004008A7000E302A2688315408912739
:1019BE0088311E26883179278831123E23278831B7
:1019CE005508912788311E26883179278831133E94
:1019DE00232788315608912788311E26883179278A
:1019EE008831143E232788310330A6004008A70013
:1019FE000F302A2688315408912788311E268831C7
:101A0E0079278831223E232788315508912788313E
:101A1E001E26883179278831233E232788315608A0
:101A2E00912788311E26883179278831243E232735
:101A3E0088310330A6004008A7000A302A268831D4
:101A4E005408912788311E26883179278831053E22
:101A5E00232788315508912788311E26883179270A
:101A6E008831063E232788315608912788311E2655
:101A7E00883179278831073E232788310330A60025
:101A8E004008A7000B302A26883154089127883148
:101A9E001E26883179278831153E2327883155082F
:101AAE00912788311E26883179278831163E2327C3
:101ABE0088315608912788311E268831792788313A
:101ACE00173E232788310330A6004008A7000C30AC
:101ADE002A2688315408912788311E268831792785
:101AEE008831253E232788315508912788311E26B7
:101AFE00883179278831263E232788315608912749
:101B0E0088311E26883179278831273E2327883150
:101B1E000230A6004008A70007302A26883131304F
:101B2E00A00040081E2688319E2788310A3E59277C
:101B3E0088311E268831962788310B3E2E27883114
:101B4E001E268831792788310A3E232788313E08A0
:101B5E00912788311E268831792788310B3E23271D
:101B6E0088310230A6004008A70008302A268831A6
:101B7E003130A00040081E2688319E2788311A3E3B
:101B8E00592788311E268831962788311B3E2E27ED
:101B9E0088311E268831792788311A3E23278831CD
:101BAE003E08912788311E268831792788311B3EC1
:101BBE00232788310230A6004008A70009302A26C4
:101BCE0088313130A00040081E2688319E2788318A
:101BDE002A3E592788311E268831962788312B3E7A
:101BEE002E2788311E268831792788312A3E2327D1
:101BFE0088313E08912788311E2688317927883111
:101C0E002B3E23278831A601A60A4008A7001130D3
:101C1E002A2688315408912788311E268831792743
:101C2E008831303E23278831A80140089128A20030
:101C3E00A10120082218A107A035A236A208031D73
:101C4E00202E21080800A800F1268831A9012608B7
:101C5E002902031808002908543E86000030870127
:101C6E00F12688318100A90A2E2E0E3084002130F3
:101C7E0085006230FE000030FF018231E0228831A3
:101C8E005430FB01F801F901FA018400003085009F
:101C9E001830FE000030FF008231E0228831A03083
:101CAE008400003085004130FE000030FF0082319C
:101CBE00E02288310330EC000130ED000530EE00FB
:101CCE002000692E823151228831CA278831013095
:101CDE00B82688310230B82688318C1364000F3054
:101CEE002000DF0040208831D3015308A0000330CC
:101CFE00A101A035A10DA0070130A13D5308DA279F
:101D0E0088310330D30A5302031C7C2E8B176400D8
:101D1E0020006830DE015C02031C982E6030DC006F
:101D2E009A2E0430DC075C0884008501001B801BA2
:101D3E008F2E001EA42E801E8F2E19278831200074
:101D4E008F2E53086C3E86008701010881310021D9
:101D5E00883120000330D30A5302031CA82E803191
:101D6E00B128AA00A801A80A91208831B727883186
:101D7E001330DF2688312030A000A101A201A3017B
:101D8E00A8208831BE2788311630DF268831B72744
:101D9E0088311730DF268831BE2788311430DF2690
:101DAE008831DA01DA0ADB01DB0AA8012A08912858
:101DBE00A8008038F1268831A901260829020318C7
:101DCE0008002908573E860087010108F126883150
:101DDE00A90AE42EA000A101A201A301A4012400DE
:101DEE009100102F0F302402031D072FFF30230206
:101DFE00031D072FFF302202031D072FFF30210284
:101E0E000318132FA10A0319A20A0319A30A03190F
:101E1E00A40A2000911DF92E240011082000A5000F
:101E2E009111080020005C08840085010231130026
:101E3E008A00130082000800AD0000302C3DAE0079
:101E4E002D0886002E0887002A08810008008600CB
:101E5E000030353D87000108B600B701B801B90161
:101E6E005508BA00BB01BC01BD01B6073B08B73D22
:101E7E003C08B83D3D08B93D3608AC073708AD3DC6
:101E8E003808AE3D3908AF3DAF36AE0CAD0CAC0CDC
:101E9E002D08BF002C08BE003F08AA003130A0005C
:101EAE0040080800860000302B3D87000108AC007A
:101EBE00AD01AE01AF015408B000B101B201B301E2
:101ECE00AC073108AD3D3208AE3D3308AF3D2E08AC
:101EDE00AF002D08AE002C08AD003130AC01A000D3
:101EEE0040080800DD3EAB0020300318890AAC0024
:101EFE002B080800860000302F3D87002A08810736
:101F0E0041312B08813D41312C08813D41312D0855
:101F1E00813D0800AA003130A00040080800DD3ED7
:101F2E00B40020300318890AB50034080800DD3EDD
:101F3E00AA0020300318890AAB002A080800AA005C
:101F4E003F08AB003130AC01AD01A00040080800E5
:101F5E00DD3EAE0020300318890AAF002E080800BF
:101F6E004030D700A601A60A2A08A7000800D7010C
:101F7E00A601A60A2A08A70008004008593E8600B6
:101F8E0087010108080024009512151095141511EB
:101F9E009515033092009C171C171D1295162000E4
:101FAE008D150D140800A200DD106030A300DE01B7
:101FBE00230886008701011BF72F2217A21523087D
:101FCE00013E86002008C03F2108C13F2308033E82
:101FDE00860081012308860022088100DD1008009A
:101FEE000430A3070330DE0A5E02031CDF2FDD146C
:021FFE000800D9
:020000040001F9
:02000E00BCD95B
:00000001FF
